{
  "_format": "hh-sol-artifact-1",
  "contractName": "TestBridgeForSwap",
  "sourceName": "contracts/test/TestBridgeForSwap.sol",
  "abi": [
    {
      "inputs": [],
      "stateMutability": "nonpayable",
      "type": "constructor"
    },
    {
      "anonymous": false,
      "inputs": [
        {
          "indexed": true,
          "internalType": "address",
          "name": "previousOwner",
          "type": "address"
        },
        {
          "indexed": true,
          "internalType": "address",
          "name": "newOwner",
          "type": "address"
        }
      ],
      "name": "OwnershipTransferred",
      "type": "event"
    },
    {
      "anonymous": false,
      "inputs": [
        {
          "indexed": false,
          "internalType": "address",
          "name": "sender",
          "type": "address"
        },
        {
          "indexed": false,
          "internalType": "address",
          "name": "recipient",
          "type": "address"
        },
        {
          "indexed": false,
          "internalType": "bytes32",
          "name": "sendToken",
          "type": "bytes32"
        },
        {
          "indexed": false,
          "internalType": "bytes32",
          "name": "receiveToken",
          "type": "bytes32"
        },
        {
          "indexed": false,
          "internalType": "uint256",
          "name": "sendAmount",
          "type": "uint256"
        },
        {
          "indexed": false,
          "internalType": "uint256",
          "name": "receiveAmount",
          "type": "uint256"
        }
      ],
      "name": "Swapped",
      "type": "event"
    },
    {
      "anonymous": false,
      "inputs": [
        {
          "indexed": false,
          "internalType": "uint256",
          "name": "amount",
          "type": "uint256"
        }
      ],
      "name": "vUsdSent",
      "type": "event"
    },
    {
      "inputs": [
        {
          "internalType": "uint256",
          "name": "chainId_",
          "type": "uint256"
        },
        {
          "internalType": "bytes32",
          "name": "tokenAddress_",
          "type": "bytes32"
        }
      ],
      "name": "addBridgeToken",
      "outputs": [],
      "stateMutability": "nonpayable",
      "type": "function"
    },
    {
      "inputs": [
        {
          "internalType": "contract Pool",
          "name": "pool",
          "type": "address"
        },
        {
          "internalType": "bytes32",
          "name": "token",
          "type": "bytes32"
        }
      ],
      "name": "addPool",
      "outputs": [],
      "stateMutability": "nonpayable",
      "type": "function"
    },
    {
      "inputs": [],
      "name": "canSwap",
      "outputs": [
        {
          "internalType": "uint8",
          "name": "",
          "type": "uint8"
        }
      ],
      "stateMutability": "view",
      "type": "function"
    },
    {
      "inputs": [],
      "name": "chainId",
      "outputs": [
        {
          "internalType": "uint256",
          "name": "",
          "type": "uint256"
        }
      ],
      "stateMutability": "view",
      "type": "function"
    },
    {
      "inputs": [
        {
          "internalType": "uint256",
          "name": "",
          "type": "uint256"
        },
        {
          "internalType": "enum MessengerProtocol",
          "name": "",
          "type": "uint8"
        },
        {
          "internalType": "address",
          "name": "",
          "type": "address"
        }
      ],
      "name": "getBridgingCostInTokens",
      "outputs": [
        {
          "internalType": "uint256",
          "name": "",
          "type": "uint256"
        }
      ],
      "stateMutability": "pure",
      "type": "function"
    },
    {
      "inputs": [
        {
          "internalType": "uint256",
          "name": "",
          "type": "uint256"
        },
        {
          "internalType": "bytes32",
          "name": "",
          "type": "bytes32"
        },
        {
          "internalType": "uint256",
          "name": "",
          "type": "uint256"
        },
        {
          "internalType": "uint256",
          "name": "",
          "type": "uint256"
        },
        {
          "internalType": "bytes32",
          "name": "",
          "type": "bytes32"
        },
        {
          "internalType": "uint256",
          "name": "",
          "type": "uint256"
        },
        {
          "internalType": "enum MessengerProtocol",
          "name": "",
          "type": "uint8"
        }
      ],
      "name": "hashMessage",
      "outputs": [
        {
          "internalType": "bytes32",
          "name": "",
          "type": "bytes32"
        }
      ],
      "stateMutability": "pure",
      "type": "function"
    },
    {
      "inputs": [
        {
          "internalType": "uint256",
          "name": "chainId",
          "type": "uint256"
        },
        {
          "internalType": "bytes32",
          "name": "tokenAddress",
          "type": "bytes32"
        }
      ],
      "name": "otherBridgeTokens",
      "outputs": [
        {
          "internalType": "bool",
          "name": "isSupported",
          "type": "bool"
        }
      ],
      "stateMutability": "view",
      "type": "function"
    },
    {
      "inputs": [
        {
          "internalType": "uint256",
          "name": "chainId",
          "type": "uint256"
        }
      ],
      "name": "otherBridges",
      "outputs": [
        {
          "internalType": "bytes32",
          "name": "bridgeAddress",
          "type": "bytes32"
        }
      ],
      "stateMutability": "view",
      "type": "function"
    },
    {
      "inputs": [],
      "name": "owner",
      "outputs": [
        {
          "internalType": "address",
          "name": "",
          "type": "address"
        }
      ],
      "stateMutability": "view",
      "type": "function"
    },
    {
      "inputs": [
        {
          "internalType": "bytes32",
          "name": "tokenId",
          "type": "bytes32"
        }
      ],
      "name": "pools",
      "outputs": [
        {
          "internalType": "contract Pool",
          "name": "",
          "type": "address"
        }
      ],
      "stateMutability": "view",
      "type": "function"
    },
    {
      "inputs": [
        {
          "internalType": "bytes32",
          "name": "messageHash",
          "type": "bytes32"
        }
      ],
      "name": "processedMessages",
      "outputs": [
        {
          "internalType": "uint256",
          "name": "isProcessed",
          "type": "uint256"
        }
      ],
      "stateMutability": "view",
      "type": "function"
    },
    {
      "inputs": [
        {
          "internalType": "uint256",
          "name": "amount",
          "type": "uint256"
        },
        {
          "internalType": "bytes32",
          "name": "",
          "type": "bytes32"
        },
        {
          "internalType": "uint256",
          "name": "",
          "type": "uint256"
        },
        {
          "internalType": "bytes32",
          "name": "receiveToken",
          "type": "bytes32"
        },
        {
          "internalType": "uint256",
          "name": "",
          "type": "uint256"
        },
        {
          "internalType": "enum MessengerProtocol",
          "name": "",
          "type": "uint8"
        },
        {
          "internalType": "uint256",
          "name": "receiveAmountMin",
          "type": "uint256"
        }
      ],
      "name": "receiveTokens",
      "outputs": [],
      "stateMutability": "payable",
      "type": "function"
    },
    {
      "inputs": [
        {
          "internalType": "uint256",
          "name": "chainId_",
          "type": "uint256"
        },
        {
          "internalType": "bytes32",
          "name": "bridgeAddress_",
          "type": "bytes32"
        }
      ],
      "name": "registerBridge",
      "outputs": [],
      "stateMutability": "nonpayable",
      "type": "function"
    },
    {
      "inputs": [
        {
          "internalType": "uint256",
          "name": "chainId_",
          "type": "uint256"
        },
        {
          "internalType": "bytes32",
          "name": "tokenAddress_",
          "type": "bytes32"
        }
      ],
      "name": "removeBridgeToken",
      "outputs": [],
      "stateMutability": "nonpayable",
      "type": "function"
    },
    {
      "inputs": [],
      "name": "renounceOwnership",
      "outputs": [],
      "stateMutability": "nonpayable",
      "type": "function"
    },
    {
      "inputs": [
        {
          "internalType": "bytes32",
          "name": "messageHash",
          "type": "bytes32"
        }
      ],
      "name": "sentMessages",
      "outputs": [
        {
          "internalType": "uint256",
          "name": "isSent",
          "type": "uint256"
        }
      ],
      "stateMutability": "view",
      "type": "function"
    },
    {
      "inputs": [
        {
          "internalType": "address",
          "name": "rebalancer_",
          "type": "address"
        }
      ],
      "name": "setRebalancer",
      "outputs": [],
      "stateMutability": "nonpayable",
      "type": "function"
    },
    {
      "inputs": [
        {
          "internalType": "address",
          "name": "stopAuthority_",
          "type": "address"
        }
      ],
      "name": "setStopAuthority",
      "outputs": [],
      "stateMutability": "nonpayable",
      "type": "function"
    },
    {
      "inputs": [],
      "name": "startSwap",
      "outputs": [],
      "stateMutability": "nonpayable",
      "type": "function"
    },
    {
      "inputs": [],
      "name": "stopSwap",
      "outputs": [],
      "stateMutability": "nonpayable",
      "type": "function"
    },
    {
      "inputs": [
        {
          "internalType": "uint256",
          "name": "amount",
          "type": "uint256"
        },
        {
          "internalType": "bytes32",
          "name": "token",
          "type": "bytes32"
        },
        {
          "internalType": "bytes32",
          "name": "receiveToken",
          "type": "bytes32"
        },
        {
          "internalType": "address",
          "name": "recipient",
          "type": "address"
        },
        {
          "internalType": "uint256",
          "name": "receiveAmountMin",
          "type": "uint256"
        }
      ],
      "name": "swap",
      "outputs": [],
      "stateMutability": "nonpayable",
      "type": "function"
    },
    {
      "inputs": [
        {
          "internalType": "bytes32",
          "name": "token",
          "type": "bytes32"
        },
        {
          "internalType": "uint256",
          "name": "amount",
          "type": "uint256"
        },
        {
          "internalType": "bytes32",
          "name": "recipient",
          "type": "bytes32"
        },
        {
          "internalType": "uint256",
          "name": "destinationChainId",
          "type": "uint256"
        },
        {
          "internalType": "bytes32",
          "name": "receiveToken",
          "type": "bytes32"
        },
        {
          "internalType": "uint256",
          "name": "nonce",
          "type": "uint256"
        },
        {
          "internalType": "enum MessengerProtocol",
          "name": "messenger",
          "type": "uint8"
        },
        {
          "internalType": "uint256",
          "name": "feeTokenAmount",
          "type": "uint256"
        }
      ],
      "name": "swapAndBridge",
      "outputs": [],
      "stateMutability": "payable",
      "type": "function"
    },
    {
      "inputs": [
        {
          "internalType": "address",
          "name": "newOwner",
          "type": "address"
        }
      ],
      "name": "transferOwnership",
      "outputs": [],
      "stateMutability": "nonpayable",
      "type": "function"
    },
    {
      "inputs": [
        {
          "internalType": "uint256",
          "name": "amount",
          "type": "uint256"
        }
      ],
      "name": "withdrawGasTokens",
      "outputs": [],
      "stateMutability": "nonpayable",
      "type": "function"
    }
  ],
  "bytecode": "0x60a06040526005805460ff60a01b1916600160a01b17905534801561002357600080fd5b50601261002f33610059565b608052600054600480546001600160a01b0319166001600160a01b039092169190911790556100a9565b600080546001600160a01b038381166001600160a01b0319831681178455604051919092169283917f8be0079c531659141344cd1fd0a4f28419497f9722a3daafe3b4186f6b6457e09190a35050565b60805161132f6100c4600039600061078d015261132f6000f3fe60806040526004361061018b5760003560e01c806382e3702d116100d6578063b633b3641161007f578063e43bfe5e11610059578063e43bfe5e1461046b578063eb58867514610482578063f2fde38b146104a257600080fd5b8063b633b36414610441578063c7c56d7e146102b8578063c992b5b21461045657600080fd5b80639a8a0592116100b05780639a8a0592146103f5578063aab65192146102b8578063b5217bb41461040b57600080fd5b806382e3702d1461036957806388ba16ab146103965780638da5cb5b146103c357600080fd5b80633ee2594e116101385780636cfd1553116101125780636cfd155314610310578063715018a6146103305780637d18330b1461034557600080fd5b80633ee2594e146102b85780634927b44c146102d85780634cd480bd146102f857600080fd5b80632d4b01b5116101695780632d4b01b5146102355780632ed1084b14610270578063331838b21461029857600080fd5b806310ce0516146101905780631268cee8146101c85780632c48bb8d146101ea575b600080fd5b34801561019c57600080fd5b506005546101b190600160a01b900460ff1681565b60405160ff90911681526020015b60405180910390f35b3480156101d457600080fd5b506101e86101e3366004610e82565b6104c2565b005b3480156101f657600080fd5b50610225610205366004610e9b565b600a60209081526000928352604080842090915290825290205460ff1681565b60405190151581526020016101bf565b34801561024157600080fd5b50610262610250366004610e82565b60096020526000908152604090205481565b6040519081526020016101bf565b34801561027c57600080fd5b5061026261028b366004610ed1565b6000979650505050505050565b3480156102a457600080fd5b506101e86102b3366004610f42565b6104cd565b3480156102c457600080fd5b506101e86102d3366004610e9b565b6105b5565b3480156102e457600080fd5b506101e86102f3366004610f8b565b6105c1565b6101e8610306366004610faf565b5050505050505050565b34801561031c57600080fd5b506101e861032b366004610f8b565b6105f8565b34801561033c57600080fd5b506101e861062f565b34801561035157600080fd5b50610262610360366004611015565b60009392505050565b34801561037557600080fd5b50610262610384366004610e82565b60086020526000908152604090205481565b3480156103a257600080fd5b506102626103b1366004610e82565b60076020526000908152604090205481565b3480156103cf57600080fd5b506000546001600160a01b03165b6040516001600160a01b0390911681526020016101bf565b34801561040157600080fd5b5061026260065481565b34801561041757600080fd5b506103dd610426366004610e82565b6001602052600090815260409020546001600160a01b031681565b34801561044d57600080fd5b506101e8610643565b34801561046257600080fd5b506101e86106ac565b6101e8610479366004611055565b50505050505050565b34801561048e57600080fd5b506101e861049d3660046110b1565b6106c9565b3480156104ae57600080fd5b506101e86104bd366004610f8b565b61081d565b6104ca6108aa565b50565b600554600160a01b900460ff1660011461052e5760405162461bcd60e51b815260206004820152601760248201527f526f757465723a20737761702070726f6869626974656400000000000000000060448201526064015b60405180910390fd5b600061053b853388610904565b9050600061054b85858486610955565b604080513381526001600160a01b0387166020820152908101889052606081018790526080810189905260a081018290529091507fe85f63622be58135a84c6e9de632115a3c471b0540a04d37a7c53a0647cd0c399060c00160405180910390a150505050505050565b6105bd6108aa565b5050565b6105c96108aa565b6004805473ffffffffffffffffffffffffffffffffffffffff19166001600160a01b0392909216919091179055565b6106006108aa565b6005805473ffffffffffffffffffffffffffffffffffffffff19166001600160a01b0392909216919091179055565b6106376108aa565b6106416000610a6a565b565b6004546001600160a01b0316331461069d5760405162461bcd60e51b815260206004820152601c60248201527f526f757465723a206973206e6f742073746f70417574686f72697479000000006044820152606401610525565b6005805460ff60a01b19169055565b6106b46108aa565b6005805460ff60a01b1916600160a01b179055565b6106d16108aa565b6000818152600160209081526040808320805473ffffffffffffffffffffffffffffffffffffffff19166001600160a01b038781169190911790915581517f313ce56700000000000000000000000000000000000000000000000000000000815291518594939185169263313ce5679260048083019391928290030181865afa158015610762573d6000803e3d6000fd5b505050506040513d601f19601f8201168201806040525081019061078691906110dd565b60ff1690507f00000000000000000000000000000000000000000000000000000000000000006107b782601261112f565b6107c19190611148565b6107cc90600a61123f565b6001600160a01b0383166000908152600360205260409020556107f081601261112f565b6107fb90600a61123f565b6001600160a01b03909216600090815260026020526040902091909155505050565b6108256108aa565b6001600160a01b0381166108a15760405162461bcd60e51b815260206004820152602660248201527f4f776e61626c653a206e6577206f776e657220697320746865207a65726f206160448201527f64647265737300000000000000000000000000000000000000000000000000006064820152608401610525565b6104ca81610a6a565b6000546001600160a01b031633146106415760405162461bcd60e51b815260206004820181905260248201527f4f776e61626c653a2063616c6c6572206973206e6f7420746865206f776e65726044820152606401610525565b600080610912858585610ac7565b90507fa9536c0565950501ecd3f39d809f75a69739bb3fe4ba5d5c56bf9832bbd7e1e98160405161094591815260200190565b60405180910390a1949350505050565b6000848152600160205260408120546001600160a01b0316806109ba5760405162461bcd60e51b815260206004820152601760248201527f526f757465723a206e6f207265636569766520706f6f6c0000000000000000006044820152606401610525565b6005546040517f2d46f63e0000000000000000000000000000000000000000000000000000000081526001600160a01b03878116600483018190526024830188905260448301879052928116909214606482015290821690632d46f63e906084016020604051808303816000875af1158015610a3a573d6000803e3d6000fd5b505050506040513d601f19601f82011682018060405250810190610a5e919061124b565b9150505b949350505050565b600080546001600160a01b0383811673ffffffffffffffffffffffffffffffffffffffff19831681178455604051919092169283917f8be0079c531659141344cd1fd0a4f28419497f9722a3daafe3b4186f6b6457e09190a35050565b6000838152600160205260408120546001600160a01b031680610b2c5760405162461bcd60e51b815260206004820152600f60248201527f526f757465723a206e6f20706f6f6c00000000000000000000000000000000006044820152606401610525565b610b416001600160a01b038616858386610be7565b6005546040517f28fdb4810000000000000000000000000000000000000000000000000000000081526001600160a01b0386811660048301819052602483018790529281169092146044820152908216906328fdb481906064016020604051808303816000875af1158015610bba573d6000803e3d6000fd5b505050506040513d601f19601f82011682018060405250810190610bde919061124b565b95945050505050565b604080516001600160a01b0385811660248301528416604482015260648082018490528251808303909101815260849091019091526020810180517bffffffffffffffffffffffffffffffffffffffffffffffffffffffff167f23b872dd00000000000000000000000000000000000000000000000000000000179052610c6f908590610c75565b50505050565b6000610cca826040518060400160405280602081526020017f5361666545524332303a206c6f772d6c6576656c2063616c6c206661696c6564815250856001600160a01b0316610d5f9092919063ffffffff16565b805190915015610d5a5780806020019051810190610ce89190611264565b610d5a5760405162461bcd60e51b815260206004820152602a60248201527f5361666545524332303a204552433230206f7065726174696f6e20646964206e60448201527f6f742073756363656564000000000000000000000000000000000000000000006064820152608401610525565b505050565b6060610a62848460008585600080866001600160a01b03168587604051610d8691906112aa565b60006040518083038185875af1925050503d8060008114610dc3576040519150601f19603f3d011682016040523d82523d6000602084013e610dc8565b606091505b5091509150610dd987838387610de4565b979650505050505050565b60608315610e53578251600003610e4c576001600160a01b0385163b610e4c5760405162461bcd60e51b815260206004820152601d60248201527f416464726573733a2063616c6c20746f206e6f6e2d636f6e74726163740000006044820152606401610525565b5081610a62565b610a628383815115610e685781518083602001fd5b8060405162461bcd60e51b815260040161052591906112c6565b600060208284031215610e9457600080fd5b5035919050565b60008060408385031215610eae57600080fd5b50508035926020909101359150565b803560048110610ecc57600080fd5b919050565b600080600080600080600060e0888a031215610eec57600080fd5b873596506020880135955060408801359450606088013593506080880135925060a08801359150610f1f60c08901610ebd565b905092959891949750929550565b6001600160a01b03811681146104ca57600080fd5b600080600080600060a08688031215610f5a57600080fd5b8535945060208601359350604086013592506060860135610f7a81610f2d565b949793965091946080013592915050565b600060208284031215610f9d57600080fd5b8135610fa881610f2d565b9392505050565b600080600080600080600080610100898b031215610fcc57600080fd5b883597506020890135965060408901359550606089013594506080890135935060a08901359250610fff60c08a01610ebd565b915060e089013590509295985092959890939650565b60008060006060848603121561102a57600080fd5b8335925061103a60208501610ebd565b9150604084013561104a81610f2d565b809150509250925092565b600080600080600080600060e0888a03121561107057600080fd5b873596506020880135955060408801359450606088013593506080880135925061109c60a08901610ebd565b915060c0880135905092959891949750929550565b600080604083850312156110c457600080fd5b82356110cf81610f2d565b946020939093013593505050565b6000602082840312156110ef57600080fd5b815160ff81168114610fa857600080fd5b7f4e487b7100000000000000000000000000000000000000000000000000000000600052601160045260246000fd5b8181038181111561114257611142611100565b92915050565b8082018082111561114257611142611100565b600181815b8085111561119657816000190482111561117c5761117c611100565b8085161561118957918102915b93841c9390800290611160565b509250929050565b6000826111ad57506001611142565b816111ba57506000611142565b81600181146111d057600281146111da576111f6565b6001915050611142565b60ff8411156111eb576111eb611100565b50506001821b611142565b5060208310610133831016604e8410600b8410161715611219575081810a611142565b611223838361115b565b806000190482111561123757611237611100565b029392505050565b6000610fa8838361119e565b60006020828403121561125d57600080fd5b5051919050565b60006020828403121561127657600080fd5b81518015158114610fa857600080fd5b60005b838110156112a1578181015183820152602001611289565b50506000910152565b600082516112bc818460208701611286565b9190910192915050565b60208152600082518060208401526112e5816040850160208701611286565b601f01601f1916919091016040019291505056fea26469706673582212207fff9414154d31744dd4771476ef681492dcc3fbca1868dc9b00e90cd4c3509a64736f6c63430008120033",
  "linkReferences": {},
  "deployedLinkReferences": {}
}