{
  "_format": "hh-sol-artifact-1",
  "contractName": "RewardManager",
  "sourceName": "contracts/RewardManager.sol",
  "abi": [
    {
      "inputs": [
        {
          "internalType": "contract ERC20",
          "name": "token_",
          "type": "address"
        },
        {
          "internalType": "string",
          "name": "lpName",
          "type": "string"
        },
        {
          "internalType": "string",
          "name": "lpSymbol",
          "type": "string"
        }
      ],
      "stateMutability": "nonpayable",
      "type": "constructor"
    },
    {
      "anonymous": false,
      "inputs": [
        {
          "indexed": true,
          "internalType": "address",
          "name": "owner",
          "type": "address"
        },
        {
          "indexed": true,
          "internalType": "address",
          "name": "spender",
          "type": "address"
        },
        {
          "indexed": false,
          "internalType": "uint256",
          "name": "value",
          "type": "uint256"
        }
      ],
      "name": "Approval",
      "type": "event"
    },
    {
      "anonymous": false,
      "inputs": [
        {
          "indexed": true,
          "internalType": "address",
          "name": "user",
          "type": "address"
        },
        {
          "indexed": false,
          "internalType": "uint256",
          "name": "amount",
          "type": "uint256"
        }
      ],
      "name": "Deposit",
      "type": "event"
    },
    {
      "anonymous": false,
      "inputs": [
        {
          "indexed": true,
          "internalType": "address",
          "name": "previousOwner",
          "type": "address"
        },
        {
          "indexed": true,
          "internalType": "address",
          "name": "newOwner",
          "type": "address"
        }
      ],
      "name": "OwnershipTransferred",
      "type": "event"
    },
    {
      "anonymous": false,
      "inputs": [
        {
          "indexed": true,
          "internalType": "address",
          "name": "user",
          "type": "address"
        },
        {
          "indexed": false,
          "internalType": "uint256",
          "name": "amount",
          "type": "uint256"
        }
      ],
      "name": "RewardsClaimed",
      "type": "event"
    },
    {
      "anonymous": false,
      "inputs": [
        {
          "indexed": true,
          "internalType": "address",
          "name": "from",
          "type": "address"
        },
        {
          "indexed": true,
          "internalType": "address",
          "name": "to",
          "type": "address"
        },
        {
          "indexed": false,
          "internalType": "uint256",
          "name": "value",
          "type": "uint256"
        }
      ],
      "name": "Transfer",
      "type": "event"
    },
    {
      "anonymous": false,
      "inputs": [
        {
          "indexed": true,
          "internalType": "address",
          "name": "user",
          "type": "address"
        },
        {
          "indexed": false,
          "internalType": "uint256",
          "name": "amount",
          "type": "uint256"
        }
      ],
      "name": "Withdraw",
      "type": "event"
    },
    {
      "inputs": [],
      "name": "accRewardPerShareP",
      "outputs": [
        {
          "internalType": "uint256",
          "name": "",
          "type": "uint256"
        }
      ],
      "stateMutability": "view",
      "type": "function"
    },
    {
      "inputs": [],
      "name": "adminFeeAmount",
      "outputs": [
        {
          "internalType": "uint256",
          "name": "",
          "type": "uint256"
        }
      ],
      "stateMutability": "view",
      "type": "function"
    },
    {
      "inputs": [],
      "name": "adminFeeShareBP",
      "outputs": [
        {
          "internalType": "uint256",
          "name": "",
          "type": "uint256"
        }
      ],
      "stateMutability": "view",
      "type": "function"
    },
    {
      "inputs": [
        {
          "internalType": "address",
          "name": "owner",
          "type": "address"
        },
        {
          "internalType": "address",
          "name": "spender",
          "type": "address"
        }
      ],
      "name": "allowance",
      "outputs": [
        {
          "internalType": "uint256",
          "name": "",
          "type": "uint256"
        }
      ],
      "stateMutability": "view",
      "type": "function"
    },
    {
      "inputs": [
        {
          "internalType": "address",
          "name": "spender",
          "type": "address"
        },
        {
          "internalType": "uint256",
          "name": "amount",
          "type": "uint256"
        }
      ],
      "name": "approve",
      "outputs": [
        {
          "internalType": "bool",
          "name": "",
          "type": "bool"
        }
      ],
      "stateMutability": "nonpayable",
      "type": "function"
    },
    {
      "inputs": [
        {
          "internalType": "address",
          "name": "account",
          "type": "address"
        }
      ],
      "name": "balanceOf",
      "outputs": [
        {
          "internalType": "uint256",
          "name": "",
          "type": "uint256"
        }
      ],
      "stateMutability": "view",
      "type": "function"
    },
    {
      "inputs": [],
      "name": "claimAdminFee",
      "outputs": [],
      "stateMutability": "nonpayable",
      "type": "function"
    },
    {
      "inputs": [],
      "name": "claimRewards",
      "outputs": [],
      "stateMutability": "nonpayable",
      "type": "function"
    },
    {
      "inputs": [],
      "name": "decimals",
      "outputs": [
        {
          "internalType": "uint8",
          "name": "",
          "type": "uint8"
        }
      ],
      "stateMutability": "pure",
      "type": "function"
    },
    {
      "inputs": [
        {
          "internalType": "address",
          "name": "spender",
          "type": "address"
        },
        {
          "internalType": "uint256",
          "name": "subtractedValue",
          "type": "uint256"
        }
      ],
      "name": "decreaseAllowance",
      "outputs": [
        {
          "internalType": "bool",
          "name": "",
          "type": "bool"
        }
      ],
      "stateMutability": "nonpayable",
      "type": "function"
    },
    {
      "inputs": [
        {
          "internalType": "address",
          "name": "spender",
          "type": "address"
        },
        {
          "internalType": "uint256",
          "name": "addedValue",
          "type": "uint256"
        }
      ],
      "name": "increaseAllowance",
      "outputs": [
        {
          "internalType": "bool",
          "name": "",
          "type": "bool"
        }
      ],
      "stateMutability": "nonpayable",
      "type": "function"
    },
    {
      "inputs": [],
      "name": "name",
      "outputs": [
        {
          "internalType": "string",
          "name": "",
          "type": "string"
        }
      ],
      "stateMutability": "view",
      "type": "function"
    },
    {
      "inputs": [],
      "name": "owner",
      "outputs": [
        {
          "internalType": "address",
          "name": "",
          "type": "address"
        }
      ],
      "stateMutability": "view",
      "type": "function"
    },
    {
      "inputs": [
        {
          "internalType": "address",
          "name": "user",
          "type": "address"
        }
      ],
      "name": "pendingReward",
      "outputs": [
        {
          "internalType": "uint256",
          "name": "",
          "type": "uint256"
        }
      ],
      "stateMutability": "view",
      "type": "function"
    },
    {
      "inputs": [],
      "name": "renounceOwnership",
      "outputs": [],
      "stateMutability": "nonpayable",
      "type": "function"
    },
    {
      "inputs": [
        {
          "internalType": "uint256",
          "name": "adminFeeShareBP_",
          "type": "uint256"
        }
      ],
      "name": "setAdminFeeShare",
      "outputs": [],
      "stateMutability": "nonpayable",
      "type": "function"
    },
    {
      "inputs": [],
      "name": "symbol",
      "outputs": [
        {
          "internalType": "string",
          "name": "",
          "type": "string"
        }
      ],
      "stateMutability": "view",
      "type": "function"
    },
    {
      "inputs": [],
      "name": "token",
      "outputs": [
        {
          "internalType": "contract ERC20",
          "name": "",
          "type": "address"
        }
      ],
      "stateMutability": "view",
      "type": "function"
    },
    {
      "inputs": [],
      "name": "totalSupply",
      "outputs": [
        {
          "internalType": "uint256",
          "name": "",
          "type": "uint256"
        }
      ],
      "stateMutability": "view",
      "type": "function"
    },
    {
      "inputs": [
        {
          "internalType": "address",
          "name": "to",
          "type": "address"
        },
        {
          "internalType": "uint256",
          "name": "amount",
          "type": "uint256"
        }
      ],
      "name": "transfer",
      "outputs": [
        {
          "internalType": "bool",
          "name": "",
          "type": "bool"
        }
      ],
      "stateMutability": "nonpayable",
      "type": "function"
    },
    {
      "inputs": [
        {
          "internalType": "address",
          "name": "from",
          "type": "address"
        },
        {
          "internalType": "address",
          "name": "to",
          "type": "address"
        },
        {
          "internalType": "uint256",
          "name": "amount",
          "type": "uint256"
        }
      ],
      "name": "transferFrom",
      "outputs": [
        {
          "internalType": "bool",
          "name": "",
          "type": "bool"
        }
      ],
      "stateMutability": "nonpayable",
      "type": "function"
    },
    {
      "inputs": [
        {
          "internalType": "address",
          "name": "newOwner",
          "type": "address"
        }
      ],
      "name": "transferOwnership",
      "outputs": [],
      "stateMutability": "nonpayable",
      "type": "function"
    },
    {
      "inputs": [
        {
          "internalType": "address",
          "name": "user",
          "type": "address"
        }
      ],
      "name": "userRewardDebt",
      "outputs": [
        {
          "internalType": "uint256",
          "name": "amount",
          "type": "uint256"
        }
      ],
      "stateMutability": "view",
      "type": "function"
    }
  ],
  "bytecode": "0x60a06040523480156200001157600080fd5b50604051620012643803806200126483398101604081905262000034916200019f565b818162000041336200008a565b60046200004f8382620002b8565b5060056200005e8282620002b8565b5050506001600160a01b0383166080526200007d600561271062000384565b60085550620003a7915050565b600080546001600160a01b038381166001600160a01b0319831681178455604051919092169283917f8be0079c531659141344cd1fd0a4f28419497f9722a3daafe3b4186f6b6457e09190a35050565b634e487b7160e01b600052604160045260246000fd5b600082601f8301126200010257600080fd5b81516001600160401b03808211156200011f576200011f620000da565b604051601f8301601f19908116603f011681019082821181831017156200014a576200014a620000da565b816040528381526020925086838588010111156200016757600080fd5b600091505b838210156200018b57858201830151818301840152908201906200016c565b600093810190920192909252949350505050565b600080600060608486031215620001b557600080fd5b83516001600160a01b0381168114620001cd57600080fd5b60208501519093506001600160401b0380821115620001eb57600080fd5b620001f987838801620000f0565b935060408601519150808211156200021057600080fd5b506200021f86828701620000f0565b9150509250925092565b600181811c908216806200023e57607f821691505b6020821081036200025f57634e487b7160e01b600052602260045260246000fd5b50919050565b601f821115620002b357600081815260208120601f850160051c810160208610156200028e5750805b601f850160051c820191505b81811015620002af578281556001016200029a565b5050505b505050565b81516001600160401b03811115620002d457620002d4620000da565b620002ec81620002e5845462000229565b8462000265565b602080601f8311600181146200032457600084156200030b5750858301515b600019600386901b1c1916600185901b178555620002af565b600085815260208120601f198616915b82811015620003555788860151825594840194600190910190840162000334565b5085821015620003745787850151600019600388901b60f8161c191681555b5050505050600190811b01905550565b600082620003a257634e487b7160e01b600052601260045260246000fd5b500490565b608051610e93620003d16000396000818161034f0152818161050d01526106a50152610e936000f3fe608060405234801561001057600080fd5b506004361061018d5760003560e01c806370a08231116100e3578063a9059cbb1161008c578063f2fde38b11610066578063f2fde38b14610324578063f40f0f5214610337578063fc0c546a1461034a57600080fd5b8063a9059cbb146101b0578063dd62ed3e146102e3578063e99fee3e1461031c57600080fd5b80638da5cb5b116100bd5780638da5cb5b146102a357806395d89b41146102c8578063a457c2d7146102d057600080fd5b806370a0823114610269578063715018a6146102925780637a23032c1461029a57600080fd5b8063313ce56711610145578063488cb8411161011f578063488cb841146102375780634bf6f9e71461024057806352fb8b031461026057600080fd5b8063313ce5671461020d578063372500ab1461021c578063395093511461022457600080fd5b806318160ddd1161017657806318160ddd146101d357806323b872dd146101e55780632d8fe99a146101f857600080fd5b806306fdde0314610192578063095ea7b3146101b0575b600080fd5b61019a610371565b6040516101a79190610c6f565b60405180910390f35b6101c36101be366004610cbe565b610403565b60405190151581526020016101a7565b6003545b6040519081526020016101a7565b6101c36101f3366004610ce8565b61041d565b61020b610206366004610d24565b610441565b005b604051600381526020016101a7565b61020b6104a5565b6101c3610232366004610cbe565b610578565b6101d760085481565b6101d761024e366004610d3d565b60076020526000908152604090205481565b6101d760065481565b6101d7610277366004610d3d565b6001600160a01b031660009081526001602052604090205490565b61020b6105b7565b6101d760095481565b6000546001600160a01b03165b6040516001600160a01b0390911681526020016101a7565b61019a6105cb565b6101c36102de366004610cbe565b6105da565b6101d76102f1366004610d5f565b6001600160a01b03918216600090815260026020908152604080832093909416825291909152205490565b61020b610684565b61020b610332366004610d3d565b6106d4565b6101d7610345366004610d3d565b610761565b6102b07f000000000000000000000000000000000000000000000000000000000000000081565b60606004805461038090610d92565b80601f01602080910402602001604051908101604052809291908181526020018280546103ac90610d92565b80156103f95780601f106103ce576101008083540402835291602001916103f9565b820191906000526020600020905b8154815290600101906020018083116103dc57829003601f168201915b5050505050905090565b6000336104118185856107a3565b60019150505b92915050565b60003361042b8582856107eb565b6104368585856107a3565b506001949350505050565b61044961087d565b6127108111156104a05760405162461bcd60e51b815260206004820152601760248201527f5265776172644d616e616765723a20746f6f206869676800000000000000000060448201526064015b60405180910390fd5b600855565b3360009081526001602052604090205480156105755760006034600654836104cd9190610de2565b336000908152600760205260408120549190921c92506104ed9083610df9565b905080156105725733600081815260076020526040902083905561053c907f00000000000000000000000000000000000000000000000000000000000000006001600160a01b031690836108d7565b60405181815233907ffc30cddea38e2bf4d6ea7d3f9ed3b6ad7f176419f4963bd81318067a4aee73fe9060200160405180910390a25b50505b50565b3360008181526002602090815260408083206001600160a01b038716845290915281205490919061041190829086906105b2908790610e0c565b6107a3565b6105bf61087d565b6105c96000610957565b565b60606005805461038090610d92565b3360008181526002602090815260408083206001600160a01b0387168452909152812054909190838110156106775760405162461bcd60e51b815260206004820152602560248201527f45524332303a2064656372656173656420616c6c6f77616e63652062656c6f7760448201527f207a65726f0000000000000000000000000000000000000000000000000000006064820152608401610497565b61043682868684036107a3565b61068c61087d565b600954156105c9576009546106cd906001600160a01b037f0000000000000000000000000000000000000000000000000000000000000000169033906108d7565b6000600955565b6106dc61087d565b6001600160a01b0381166107585760405162461bcd60e51b815260206004820152602660248201527f4f776e61626c653a206e6577206f776e657220697320746865207a65726f206160448201527f64647265737300000000000000000000000000000000000000000000000000006064820152608401610497565b61057581610957565b6001600160a01b03811660009081526007602090815260408083205460065460019093529083205490916034916107989190610de2565b61041792911c610df9565b60405162461bcd60e51b815260206004820152600b60248201527f556e737570706f727465640000000000000000000000000000000000000000006044820152606401610497565b6001600160a01b038381166000908152600260209081526040808320938616835292905220546000198114610877578181101561086a5760405162461bcd60e51b815260206004820152601d60248201527f45524332303a20696e73756666696369656e7420616c6c6f77616e63650000006044820152606401610497565b61087784848484036107a3565b50505050565b6000546001600160a01b031633146105c95760405162461bcd60e51b815260206004820181905260248201527f4f776e61626c653a2063616c6c6572206973206e6f7420746865206f776e65726044820152606401610497565b604080516001600160a01b038416602482015260448082018490528251808303909101815260649091019091526020810180517bffffffffffffffffffffffffffffffffffffffffffffffffffffffff167fa9059cbb000000000000000000000000000000000000000000000000000000001790526105729084906109bf565b600080546001600160a01b038381167fffffffffffffffffffffffff0000000000000000000000000000000000000000831681178455604051919092169283917f8be0079c531659141344cd1fd0a4f28419497f9722a3daafe3b4186f6b6457e09190a35050565b6000610a14826040518060400160405280602081526020017f5361666545524332303a206c6f772d6c6576656c2063616c6c206661696c6564815250856001600160a01b0316610aa49092919063ffffffff16565b8051909150156105725780806020019051810190610a329190610e1f565b6105725760405162461bcd60e51b815260206004820152602a60248201527f5361666545524332303a204552433230206f7065726174696f6e20646964206e60448201527f6f742073756363656564000000000000000000000000000000000000000000006064820152608401610497565b6060610ab38484600085610abb565b949350505050565b606082471015610b335760405162461bcd60e51b815260206004820152602660248201527f416464726573733a20696e73756666696369656e742062616c616e636520666f60448201527f722063616c6c00000000000000000000000000000000000000000000000000006064820152608401610497565b600080866001600160a01b03168587604051610b4f9190610e41565b60006040518083038185875af1925050503d8060008114610b8c576040519150601f19603f3d011682016040523d82523d6000602084013e610b91565b606091505b5091509150610ba287838387610bad565b979650505050505050565b60608315610c1c578251600003610c15576001600160a01b0385163b610c155760405162461bcd60e51b815260206004820152601d60248201527f416464726573733a2063616c6c20746f206e6f6e2d636f6e74726163740000006044820152606401610497565b5081610ab3565b610ab38383815115610c315781518083602001fd5b8060405162461bcd60e51b81526004016104979190610c6f565b60005b83811015610c66578181015183820152602001610c4e565b50506000910152565b6020815260008251806020840152610c8e816040850160208701610c4b565b601f01601f19169190910160400192915050565b80356001600160a01b0381168114610cb957600080fd5b919050565b60008060408385031215610cd157600080fd5b610cda83610ca2565b946020939093013593505050565b600080600060608486031215610cfd57600080fd5b610d0684610ca2565b9250610d1460208501610ca2565b9150604084013590509250925092565b600060208284031215610d3657600080fd5b5035919050565b600060208284031215610d4f57600080fd5b610d5882610ca2565b9392505050565b60008060408385031215610d7257600080fd5b610d7b83610ca2565b9150610d8960208401610ca2565b90509250929050565b600181811c90821680610da657607f821691505b602082108103610dc657634e487b7160e01b600052602260045260246000fd5b50919050565b634e487b7160e01b600052601160045260246000fd5b808202811582820484141761041757610417610dcc565b8181038181111561041757610417610dcc565b8082018082111561041757610417610dcc565b600060208284031215610e3157600080fd5b81518015158114610d5857600080fd5b60008251610e53818460208701610c4b565b919091019291505056fea26469706673582212202a97a6a867425b285643efab7e26ce2078fae4394859e5924681cb4ff8b49eda64736f6c63430008120033",
  "linkReferences": {},
  "deployedLinkReferences": {}
}