{
  "_format": "hh-sol-artifact-1",
  "contractName": "TestPoolForRewards",
  "sourceName": "contracts/test/TestPoolForRewards.sol",
  "abi": [
    {
      "inputs": [
        {
          "internalType": "contract ERC20",
          "name": "token",
          "type": "address"
        }
      ],
      "stateMutability": "nonpayable",
      "type": "constructor"
    },
    {
      "anonymous": false,
      "inputs": [
        {
          "indexed": true,
          "internalType": "address",
          "name": "owner",
          "type": "address"
        },
        {
          "indexed": true,
          "internalType": "address",
          "name": "spender",
          "type": "address"
        },
        {
          "indexed": false,
          "internalType": "uint256",
          "name": "value",
          "type": "uint256"
        }
      ],
      "name": "Approval",
      "type": "event"
    },
    {
      "anonymous": false,
      "inputs": [
        {
          "indexed": true,
          "internalType": "address",
          "name": "user",
          "type": "address"
        },
        {
          "indexed": false,
          "internalType": "uint256",
          "name": "amount",
          "type": "uint256"
        }
      ],
      "name": "Deposit",
      "type": "event"
    },
    {
      "anonymous": false,
      "inputs": [
        {
          "indexed": true,
          "internalType": "address",
          "name": "previousOwner",
          "type": "address"
        },
        {
          "indexed": true,
          "internalType": "address",
          "name": "newOwner",
          "type": "address"
        }
      ],
      "name": "OwnershipTransferred",
      "type": "event"
    },
    {
      "anonymous": false,
      "inputs": [
        {
          "indexed": true,
          "internalType": "address",
          "name": "user",
          "type": "address"
        },
        {
          "indexed": false,
          "internalType": "uint256",
          "name": "amount",
          "type": "uint256"
        }
      ],
      "name": "RewardsClaimed",
      "type": "event"
    },
    {
      "anonymous": false,
      "inputs": [
        {
          "indexed": true,
          "internalType": "address",
          "name": "from",
          "type": "address"
        },
        {
          "indexed": true,
          "internalType": "address",
          "name": "to",
          "type": "address"
        },
        {
          "indexed": false,
          "internalType": "uint256",
          "name": "value",
          "type": "uint256"
        }
      ],
      "name": "Transfer",
      "type": "event"
    },
    {
      "anonymous": false,
      "inputs": [
        {
          "indexed": true,
          "internalType": "address",
          "name": "user",
          "type": "address"
        },
        {
          "indexed": false,
          "internalType": "uint256",
          "name": "amount",
          "type": "uint256"
        }
      ],
      "name": "Withdraw",
      "type": "event"
    },
    {
      "inputs": [],
      "name": "accRewardPerShareP",
      "outputs": [
        {
          "internalType": "uint256",
          "name": "",
          "type": "uint256"
        }
      ],
      "stateMutability": "view",
      "type": "function"
    },
    {
      "inputs": [
        {
          "internalType": "uint256",
          "name": "amount",
          "type": "uint256"
        }
      ],
      "name": "addRewards",
      "outputs": [],
      "stateMutability": "nonpayable",
      "type": "function"
    },
    {
      "inputs": [],
      "name": "adminFeeAmount",
      "outputs": [
        {
          "internalType": "uint256",
          "name": "",
          "type": "uint256"
        }
      ],
      "stateMutability": "view",
      "type": "function"
    },
    {
      "inputs": [],
      "name": "adminFeeShareBP",
      "outputs": [
        {
          "internalType": "uint256",
          "name": "",
          "type": "uint256"
        }
      ],
      "stateMutability": "view",
      "type": "function"
    },
    {
      "inputs": [
        {
          "internalType": "address",
          "name": "owner",
          "type": "address"
        },
        {
          "internalType": "address",
          "name": "spender",
          "type": "address"
        }
      ],
      "name": "allowance",
      "outputs": [
        {
          "internalType": "uint256",
          "name": "",
          "type": "uint256"
        }
      ],
      "stateMutability": "view",
      "type": "function"
    },
    {
      "inputs": [
        {
          "internalType": "address",
          "name": "spender",
          "type": "address"
        },
        {
          "internalType": "uint256",
          "name": "amount",
          "type": "uint256"
        }
      ],
      "name": "approve",
      "outputs": [
        {
          "internalType": "bool",
          "name": "",
          "type": "bool"
        }
      ],
      "stateMutability": "nonpayable",
      "type": "function"
    },
    {
      "inputs": [
        {
          "internalType": "address",
          "name": "account",
          "type": "address"
        }
      ],
      "name": "balanceOf",
      "outputs": [
        {
          "internalType": "uint256",
          "name": "",
          "type": "uint256"
        }
      ],
      "stateMutability": "view",
      "type": "function"
    },
    {
      "inputs": [],
      "name": "claimAdminFee",
      "outputs": [],
      "stateMutability": "nonpayable",
      "type": "function"
    },
    {
      "inputs": [],
      "name": "claimRewards",
      "outputs": [],
      "stateMutability": "nonpayable",
      "type": "function"
    },
    {
      "inputs": [],
      "name": "decimals",
      "outputs": [
        {
          "internalType": "uint8",
          "name": "",
          "type": "uint8"
        }
      ],
      "stateMutability": "pure",
      "type": "function"
    },
    {
      "inputs": [
        {
          "internalType": "address",
          "name": "spender",
          "type": "address"
        },
        {
          "internalType": "uint256",
          "name": "subtractedValue",
          "type": "uint256"
        }
      ],
      "name": "decreaseAllowance",
      "outputs": [
        {
          "internalType": "bool",
          "name": "",
          "type": "bool"
        }
      ],
      "stateMutability": "nonpayable",
      "type": "function"
    },
    {
      "inputs": [
        {
          "internalType": "uint256",
          "name": "amount",
          "type": "uint256"
        }
      ],
      "name": "deposit",
      "outputs": [],
      "stateMutability": "nonpayable",
      "type": "function"
    },
    {
      "inputs": [
        {
          "internalType": "address",
          "name": "spender",
          "type": "address"
        },
        {
          "internalType": "uint256",
          "name": "addedValue",
          "type": "uint256"
        }
      ],
      "name": "increaseAllowance",
      "outputs": [
        {
          "internalType": "bool",
          "name": "",
          "type": "bool"
        }
      ],
      "stateMutability": "nonpayable",
      "type": "function"
    },
    {
      "inputs": [],
      "name": "name",
      "outputs": [
        {
          "internalType": "string",
          "name": "",
          "type": "string"
        }
      ],
      "stateMutability": "view",
      "type": "function"
    },
    {
      "inputs": [],
      "name": "owner",
      "outputs": [
        {
          "internalType": "address",
          "name": "",
          "type": "address"
        }
      ],
      "stateMutability": "view",
      "type": "function"
    },
    {
      "inputs": [
        {
          "internalType": "address",
          "name": "user",
          "type": "address"
        }
      ],
      "name": "pendingReward",
      "outputs": [
        {
          "internalType": "uint256",
          "name": "",
          "type": "uint256"
        }
      ],
      "stateMutability": "view",
      "type": "function"
    },
    {
      "inputs": [],
      "name": "renounceOwnership",
      "outputs": [],
      "stateMutability": "nonpayable",
      "type": "function"
    },
    {
      "inputs": [
        {
          "internalType": "uint256",
          "name": "adminFeeShareBP_",
          "type": "uint256"
        }
      ],
      "name": "setAdminFeeShare",
      "outputs": [],
      "stateMutability": "nonpayable",
      "type": "function"
    },
    {
      "inputs": [],
      "name": "symbol",
      "outputs": [
        {
          "internalType": "string",
          "name": "",
          "type": "string"
        }
      ],
      "stateMutability": "view",
      "type": "function"
    },
    {
      "inputs": [],
      "name": "token",
      "outputs": [
        {
          "internalType": "contract ERC20",
          "name": "",
          "type": "address"
        }
      ],
      "stateMutability": "view",
      "type": "function"
    },
    {
      "inputs": [],
      "name": "totalSupply",
      "outputs": [
        {
          "internalType": "uint256",
          "name": "",
          "type": "uint256"
        }
      ],
      "stateMutability": "view",
      "type": "function"
    },
    {
      "inputs": [
        {
          "internalType": "address",
          "name": "to",
          "type": "address"
        },
        {
          "internalType": "uint256",
          "name": "amount",
          "type": "uint256"
        }
      ],
      "name": "transfer",
      "outputs": [
        {
          "internalType": "bool",
          "name": "",
          "type": "bool"
        }
      ],
      "stateMutability": "nonpayable",
      "type": "function"
    },
    {
      "inputs": [
        {
          "internalType": "address",
          "name": "from",
          "type": "address"
        },
        {
          "internalType": "address",
          "name": "to",
          "type": "address"
        },
        {
          "internalType": "uint256",
          "name": "amount",
          "type": "uint256"
        }
      ],
      "name": "transferFrom",
      "outputs": [
        {
          "internalType": "bool",
          "name": "",
          "type": "bool"
        }
      ],
      "stateMutability": "nonpayable",
      "type": "function"
    },
    {
      "inputs": [
        {
          "internalType": "address",
          "name": "newOwner",
          "type": "address"
        }
      ],
      "name": "transferOwnership",
      "outputs": [],
      "stateMutability": "nonpayable",
      "type": "function"
    },
    {
      "inputs": [
        {
          "internalType": "address",
          "name": "user",
          "type": "address"
        }
      ],
      "name": "userRewardDebt",
      "outputs": [
        {
          "internalType": "uint256",
          "name": "amount",
          "type": "uint256"
        }
      ],
      "stateMutability": "view",
      "type": "function"
    },
    {
      "inputs": [
        {
          "internalType": "uint256",
          "name": "amount",
          "type": "uint256"
        }
      ],
      "name": "withdraw",
      "outputs": [],
      "stateMutability": "nonpayable",
      "type": "function"
    }
  ],
  "bytecode": "0x60a06040523480156200001157600080fd5b50604051620017fe380380620017fe833981016040819052620000349162000125565b806040518060400160405280600281526020016104c560f41b8152506040518060400160405280600281526020016104c560f41b81525081816200008762000081620000d160201b60201c565b620000d5565b6004620000958382620001fc565b506005620000a48282620001fc565b5050506001600160a01b038316608052620000c36005612710620002c8565b60085550620002eb92505050565b3390565b600080546001600160a01b038381166001600160a01b0319831681178455604051919092169283917f8be0079c531659141344cd1fd0a4f28419497f9722a3daafe3b4186f6b6457e09190a35050565b6000602082840312156200013857600080fd5b81516001600160a01b03811681146200015057600080fd5b9392505050565b634e487b7160e01b600052604160045260246000fd5b600181811c908216806200018257607f821691505b602082108103620001a357634e487b7160e01b600052602260045260246000fd5b50919050565b601f821115620001f757600081815260208120601f850160051c81016020861015620001d25750805b601f850160051c820191505b81811015620001f357828155600101620001de565b5050505b505050565b81516001600160401b0381111562000218576200021862000157565b62000230816200022984546200016d565b84620001a9565b602080601f8311600181146200026857600084156200024f5750858301515b600019600386901b1c1916600185901b178555620001f3565b600085815260208120601f198616915b82811015620002995788860151825594840194600190910190840162000278565b5085821015620002b85787850151600019600388901b60f8161c191681555b5050505050600190811b01905550565b600082620002e657634e487b7160e01b600052601260045260246000fd5b500490565b6080516114db62000323600039600081816103a9015281816105740152818161071e01528181610a4d0152610c9401526114db6000f3fe608060405234801561001057600080fd5b50600436106101ae5760003560e01c8063715018a6116100ee578063b6b55f2511610097578063e99fee3e11610071578063e99fee3e14610376578063f2fde38b1461037e578063f40f0f5214610391578063fc0c546a146103a457600080fd5b8063b6b55f2514610317578063beceed391461032a578063dd62ed3e1461033d57600080fd5b806395d89b41116100c857806395d89b41146102fc578063a457c2d714610304578063a9059cbb146101d157600080fd5b8063715018a6146102c65780637a23032c146102ce5780638da5cb5b146102d757600080fd5b8063313ce5671161015b578063488cb84111610135578063488cb8411461026b5780634bf6f9e71461027457806352fb8b031461029457806370a082311461029d57600080fd5b8063313ce56714610241578063372500ab14610250578063395093511461025857600080fd5b806323b872dd1161018c57806323b872dd146102065780632d8fe99a146102195780632e1a7d4d1461022e57600080fd5b806306fdde03146101b3578063095ea7b3146101d157806318160ddd146101f4575b600080fd5b6101bb6103cb565b6040516101c89190611295565b60405180910390f35b6101e46101df3660046112e4565b61045d565b60405190151581526020016101c8565b6003545b6040519081526020016101c8565b6101e461021436600461130e565b610477565b61022c61022736600461134a565b61049b565b005b61022c61023c36600461134a565b6104ff565b604051600381526020016101c8565b61022c61050c565b6101e46102663660046112e4565b6105de565b6101f860085481565b6101f8610282366004611363565b60076020526000908152604090205481565b6101f860065481565b6101f86102ab366004611363565b6001600160a01b031660009081526001602052604090205490565b61022c61061d565b6101f860095481565b6000546001600160a01b03165b6040516001600160a01b0390911681526020016101c8565b6101bb610631565b6101e46103123660046112e4565b610640565b61022c61032536600461134a565b6106ea565b61022c61033836600461134a565b6106f4565b6101f861034b366004611385565b6001600160a01b03918216600090815260026020908152604080832093909416825291909152205490565b61022c6106fd565b61022c61038c366004611363565b61074d565b6101f861039f366004611363565b6107da565b6102e47f000000000000000000000000000000000000000000000000000000000000000081565b6060600480546103da906113b8565b80601f0160208091040260200160405190810160405280929190818152602001828054610406906113b8565b80156104535780601f1061042857610100808354040283529160200191610453565b820191906000526020600020905b81548152906001019060200180831161043657829003601f168201915b5050505050905090565b60003361046b81858561081c565b60019150505b92915050565b600033610485858285610864565b61049085858561081c565b506001949350505050565b6104a36108f6565b6127108111156104fa5760405162461bcd60e51b815260206004820152601760248201527f5265776172644d616e616765723a20746f6f206869676800000000000000000060448201526064015b60405180910390fd5b600855565b6105093382610950565b50565b3360009081526001602052604090205480156105095760006034600654836105349190611408565b336000908152600760205260408120549190921c9250610554908361141f565b905080156105d9573360008181526007602052604090208390556105a3907f00000000000000000000000000000000000000000000000000000000000000006001600160a01b03169083610b01565b60405181815233907ffc30cddea38e2bf4d6ea7d3f9ed3b6ad7f176419f4963bd81318067a4aee73fe9060200160405180910390a25b505050565b3360008181526002602090815260408083206001600160a01b038716845290915281205490919061046b9082908690610618908790611432565b61081c565b6106256108f6565b61062f6000610b81565b565b6060600580546103da906113b8565b3360008181526002602090815260408083206001600160a01b0387168452909152812054909190838110156106dd5760405162461bcd60e51b815260206004820152602560248201527f45524332303a2064656372656173656420616c6c6f77616e63652062656c6f7760448201527f207a65726f00000000000000000000000000000000000000000000000000000060648201526084016104f1565b610490828686840361081c565b6105093382610be9565b61050981610d3a565b6107056108f6565b6009541561062f57600954610746906001600160a01b037f000000000000000000000000000000000000000000000000000000000000000016903390610b01565b6000600955565b6107556108f6565b6001600160a01b0381166107d15760405162461bcd60e51b815260206004820152602660248201527f4f776e61626c653a206e6577206f776e657220697320746865207a65726f206160448201527f646472657373000000000000000000000000000000000000000000000000000060648201526084016104f1565b61050981610b81565b6001600160a01b03811660009081526007602090815260408083205460065460019093529083205490916034916108119190611408565b61047192911c61141f565b60405162461bcd60e51b815260206004820152600b60248201527f556e737570706f7274656400000000000000000000000000000000000000000060448201526064016104f1565b6001600160a01b0383811660009081526002602090815260408083209386168352929052205460001981146108f057818110156108e35760405162461bcd60e51b815260206004820152601d60248201527f45524332303a20696e73756666696369656e7420616c6c6f77616e636500000060448201526064016104f1565b6108f0848484840361081c565b50505050565b6000546001600160a01b0316331461062f5760405162461bcd60e51b815260206004820181905260248201527f4f776e61626c653a2063616c6c6572206973206e6f7420746865206f776e657260448201526064016104f1565b6001600160a01b038216600090815260016020526040902054818110156109b95760405162461bcd60e51b815260206004820181905260248201527f5265776172644d616e616765723a206e6f7420656e6f75676820616d6f756e7460448201526064016104f1565b600081156109f8576001600160a01b0384166000908152600760205260409020546006546034906109ea9085611408565b6109f592911c61141f565b90505b610a02838361141f565b9150610a0e8484610db9565b603460065483610a1e9190611408565b6001600160a01b0386166000908152600760205260409020911c90558015610ab857610a746001600160a01b037f0000000000000000000000000000000000000000000000000000000000000000168583610b01565b836001600160a01b03167ffc30cddea38e2bf4d6ea7d3f9ed3b6ad7f176419f4963bd81318067a4aee73fe82604051610aaf91815260200190565b60405180910390a25b836001600160a01b03167f884edad9ce6fa2440d8a54cc123490eb96d2768479d49ff9c7366125a942436484604051610af391815260200190565b60405180910390a250505050565b604080516001600160a01b038416602482015260448082018490528251808303909101815260649091019091526020810180517bffffffffffffffffffffffffffffffffffffffffffffffffffffffff167fa9059cbb000000000000000000000000000000000000000000000000000000001790526105d9908490610f24565b600080546001600160a01b038381167fffffffffffffffffffffffff0000000000000000000000000000000000000000831681178455604051919092169283917f8be0079c531659141344cd1fd0a4f28419497f9722a3daafe3b4186f6b6457e09190a35050565b6001600160a01b0382166000908152600160205260408120548015610c3f576001600160a01b038416600090815260076020526040902054600654603490610c319084611408565b610c3c92911c61141f565b91505b610c498382611432565b9050610c558484611009565b603460065482610c659190611408565b6001600160a01b0386166000908152600760205260409020911c90558115610cff57610cbb6001600160a01b037f0000000000000000000000000000000000000000000000000000000000000000168584610b01565b836001600160a01b03167ffc30cddea38e2bf4d6ea7d3f9ed3b6ad7f176419f4963bd81318067a4aee73fe83604051610cf691815260200190565b60405180910390a25b836001600160a01b03167fe1fffcc4923d04b559f4d29a8bfc6cda04eb5b0d3c460751c2402c5c5cc9109c84604051610af391815260200190565b6000610d4560035490565b111561050957600061271060085483610d5e9190611408565b610d689190611445565b90508082039150610d7860035490565b610d8690603484901b611445565b60066000828254610d979190611432565b925050819055508060096000828254610db09190611432565b90915550505050565b6001600160a01b038216610e355760405162461bcd60e51b815260206004820152602160248201527f45524332303a206275726e2066726f6d20746865207a65726f2061646472657360448201527f730000000000000000000000000000000000000000000000000000000000000060648201526084016104f1565b6001600160a01b03821660009081526001602052604090205481811015610ec45760405162461bcd60e51b815260206004820152602260248201527f45524332303a206275726e20616d6f756e7420657863656564732062616c616e60448201527f636500000000000000000000000000000000000000000000000000000000000060648201526084016104f1565b6001600160a01b03831660008181526001602090815260408083208686039055600380548790039055518581529192917fddf252ad1be2c89b69c2b068fc378daa952ba7f163c4a11628f55a4df523b3ef910160405180910390a3505050565b6000610f79826040518060400160405280602081526020017f5361666545524332303a206c6f772d6c6576656c2063616c6c206661696c6564815250856001600160a01b03166110ca9092919063ffffffff16565b8051909150156105d95780806020019051810190610f979190611467565b6105d95760405162461bcd60e51b815260206004820152602a60248201527f5361666545524332303a204552433230206f7065726174696f6e20646964206e60448201527f6f7420737563636565640000000000000000000000000000000000000000000060648201526084016104f1565b6001600160a01b03821661105f5760405162461bcd60e51b815260206004820152601f60248201527f45524332303a206d696e7420746f20746865207a65726f20616464726573730060448201526064016104f1565b80600360008282546110719190611432565b90915550506001600160a01b0382166000818152600160209081526040808320805486019055518481527fddf252ad1be2c89b69c2b068fc378daa952ba7f163c4a11628f55a4df523b3ef910160405180910390a35050565b60606110d984846000856110e1565b949350505050565b6060824710156111595760405162461bcd60e51b815260206004820152602660248201527f416464726573733a20696e73756666696369656e742062616c616e636520666f60448201527f722063616c6c000000000000000000000000000000000000000000000000000060648201526084016104f1565b600080866001600160a01b031685876040516111759190611489565b60006040518083038185875af1925050503d80600081146111b2576040519150601f19603f3d011682016040523d82523d6000602084013e6111b7565b606091505b50915091506111c8878383876111d3565b979650505050505050565b6060831561124257825160000361123b576001600160a01b0385163b61123b5760405162461bcd60e51b815260206004820152601d60248201527f416464726573733a2063616c6c20746f206e6f6e2d636f6e747261637400000060448201526064016104f1565b50816110d9565b6110d983838151156112575781518083602001fd5b8060405162461bcd60e51b81526004016104f19190611295565b60005b8381101561128c578181015183820152602001611274565b50506000910152565b60208152600082518060208401526112b4816040850160208701611271565b601f01601f19169190910160400192915050565b80356001600160a01b03811681146112df57600080fd5b919050565b600080604083850312156112f757600080fd5b611300836112c8565b946020939093013593505050565b60008060006060848603121561132357600080fd5b61132c846112c8565b925061133a602085016112c8565b9150604084013590509250925092565b60006020828403121561135c57600080fd5b5035919050565b60006020828403121561137557600080fd5b61137e826112c8565b9392505050565b6000806040838503121561139857600080fd5b6113a1836112c8565b91506113af602084016112c8565b90509250929050565b600181811c908216806113cc57607f821691505b6020821081036113ec57634e487b7160e01b600052602260045260246000fd5b50919050565b634e487b7160e01b600052601160045260246000fd5b8082028115828204841417610471576104716113f2565b81810381811115610471576104716113f2565b80820180821115610471576104716113f2565b60008261146257634e487b7160e01b600052601260045260246000fd5b500490565b60006020828403121561147957600080fd5b8151801515811461137e57600080fd5b6000825161149b818460208701611271565b919091019291505056fea2646970667358221220c7b6219676b30f3ec4cc644201cec74300fab08550ba35ca018cbbeab07df19864736f6c63430008120033",
  "linkReferences": {},
  "deployedLinkReferences": {}
}