{
  "_format": "hh-sol-artifact-1",
  "contractName": "Pool",
  "sourceName": "contracts/Pool.sol",
  "abi": [
    {
      "inputs": [
        {
          "internalType": "address",
          "name": "router_",
          "type": "address"
        },
        {
          "internalType": "uint256",
          "name": "a_",
          "type": "uint256"
        },
        {
          "internalType": "contract ERC20",
          "name": "token_",
          "type": "address"
        },
        {
          "internalType": "uint16",
          "name": "feeShareBP_",
          "type": "uint16"
        },
        {
          "internalType": "uint256",
          "name": "balanceRatioMinBP_",
          "type": "uint256"
        },
        {
          "internalType": "string",
          "name": "lpName",
          "type": "string"
        },
        {
          "internalType": "string",
          "name": "lpSymbol",
          "type": "string"
        }
      ],
      "stateMutability": "nonpayable",
      "type": "constructor"
    },
    {
      "anonymous": false,
      "inputs": [
        {
          "indexed": true,
          "internalType": "address",
          "name": "owner",
          "type": "address"
        },
        {
          "indexed": true,
          "internalType": "address",
          "name": "spender",
          "type": "address"
        },
        {
          "indexed": false,
          "internalType": "uint256",
          "name": "value",
          "type": "uint256"
        }
      ],
      "name": "Approval",
      "type": "event"
    },
    {
      "anonymous": false,
      "inputs": [
        {
          "indexed": true,
          "internalType": "address",
          "name": "user",
          "type": "address"
        },
        {
          "indexed": false,
          "internalType": "uint256",
          "name": "amount",
          "type": "uint256"
        }
      ],
      "name": "Deposit",
      "type": "event"
    },
    {
      "anonymous": false,
      "inputs": [
        {
          "indexed": true,
          "internalType": "address",
          "name": "previousOwner",
          "type": "address"
        },
        {
          "indexed": true,
          "internalType": "address",
          "name": "newOwner",
          "type": "address"
        }
      ],
      "name": "OwnershipTransferred",
      "type": "event"
    },
    {
      "anonymous": false,
      "inputs": [
        {
          "indexed": true,
          "internalType": "address",
          "name": "user",
          "type": "address"
        },
        {
          "indexed": false,
          "internalType": "uint256",
          "name": "amount",
          "type": "uint256"
        }
      ],
      "name": "RewardsClaimed",
      "type": "event"
    },
    {
      "anonymous": false,
      "inputs": [
        {
          "indexed": false,
          "internalType": "address",
          "name": "recipient",
          "type": "address"
        },
        {
          "indexed": false,
          "internalType": "address",
          "name": "token",
          "type": "address"
        },
        {
          "indexed": false,
          "internalType": "uint256",
          "name": "vUsdAmount",
          "type": "uint256"
        },
        {
          "indexed": false,
          "internalType": "uint256",
          "name": "amount",
          "type": "uint256"
        },
        {
          "indexed": false,
          "internalType": "uint256",
          "name": "fee",
          "type": "uint256"
        }
      ],
      "name": "SwappedFromVUsd",
      "type": "event"
    },
    {
      "anonymous": false,
      "inputs": [
        {
          "indexed": false,
          "internalType": "address",
          "name": "sender",
          "type": "address"
        },
        {
          "indexed": false,
          "internalType": "address",
          "name": "token",
          "type": "address"
        },
        {
          "indexed": false,
          "internalType": "uint256",
          "name": "amount",
          "type": "uint256"
        },
        {
          "indexed": false,
          "internalType": "uint256",
          "name": "vUsdAmount",
          "type": "uint256"
        },
        {
          "indexed": false,
          "internalType": "uint256",
          "name": "fee",
          "type": "uint256"
        }
      ],
      "name": "SwappedToVUsd",
      "type": "event"
    },
    {
      "anonymous": false,
      "inputs": [
        {
          "indexed": true,
          "internalType": "address",
          "name": "from",
          "type": "address"
        },
        {
          "indexed": true,
          "internalType": "address",
          "name": "to",
          "type": "address"
        },
        {
          "indexed": false,
          "internalType": "uint256",
          "name": "value",
          "type": "uint256"
        }
      ],
      "name": "Transfer",
      "type": "event"
    },
    {
      "anonymous": false,
      "inputs": [
        {
          "indexed": true,
          "internalType": "address",
          "name": "user",
          "type": "address"
        },
        {
          "indexed": false,
          "internalType": "uint256",
          "name": "amount",
          "type": "uint256"
        }
      ],
      "name": "Withdraw",
      "type": "event"
    },
    {
      "stateMutability": "payable",
      "type": "fallback"
    },
    {
      "inputs": [],
      "name": "a",
      "outputs": [
        {
          "internalType": "uint256",
          "name": "",
          "type": "uint256"
        }
      ],
      "stateMutability": "view",
      "type": "function"
    },
    {
      "inputs": [],
      "name": "accRewardPerShareP",
      "outputs": [
        {
          "internalType": "uint256",
          "name": "",
          "type": "uint256"
        }
      ],
      "stateMutability": "view",
      "type": "function"
    },
    {
      "inputs": [],
      "name": "adjustTotalLpAmount",
      "outputs": [],
      "stateMutability": "nonpayable",
      "type": "function"
    },
    {
      "inputs": [],
      "name": "adminFeeAmount",
      "outputs": [
        {
          "internalType": "uint256",
          "name": "",
          "type": "uint256"
        }
      ],
      "stateMutability": "view",
      "type": "function"
    },
    {
      "inputs": [],
      "name": "adminFeeShareBP",
      "outputs": [
        {
          "internalType": "uint256",
          "name": "",
          "type": "uint256"
        }
      ],
      "stateMutability": "view",
      "type": "function"
    },
    {
      "inputs": [
        {
          "internalType": "address",
          "name": "owner",
          "type": "address"
        },
        {
          "internalType": "address",
          "name": "spender",
          "type": "address"
        }
      ],
      "name": "allowance",
      "outputs": [
        {
          "internalType": "uint256",
          "name": "",
          "type": "uint256"
        }
      ],
      "stateMutability": "view",
      "type": "function"
    },
    {
      "inputs": [
        {
          "internalType": "address",
          "name": "spender",
          "type": "address"
        },
        {
          "internalType": "uint256",
          "name": "amount",
          "type": "uint256"
        }
      ],
      "name": "approve",
      "outputs": [
        {
          "internalType": "bool",
          "name": "",
          "type": "bool"
        }
      ],
      "stateMutability": "nonpayable",
      "type": "function"
    },
    {
      "inputs": [
        {
          "internalType": "address",
          "name": "account",
          "type": "address"
        }
      ],
      "name": "balanceOf",
      "outputs": [
        {
          "internalType": "uint256",
          "name": "",
          "type": "uint256"
        }
      ],
      "stateMutability": "view",
      "type": "function"
    },
    {
      "inputs": [],
      "name": "balanceRatioMinBP",
      "outputs": [
        {
          "internalType": "uint256",
          "name": "",
          "type": "uint256"
        }
      ],
      "stateMutability": "view",
      "type": "function"
    },
    {
      "inputs": [],
      "name": "canDeposit",
      "outputs": [
        {
          "internalType": "uint256",
          "name": "",
          "type": "uint256"
        }
      ],
      "stateMutability": "view",
      "type": "function"
    },
    {
      "inputs": [],
      "name": "canWithdraw",
      "outputs": [
        {
          "internalType": "uint256",
          "name": "",
          "type": "uint256"
        }
      ],
      "stateMutability": "view",
      "type": "function"
    },
    {
      "inputs": [],
      "name": "claimAdminFee",
      "outputs": [],
      "stateMutability": "nonpayable",
      "type": "function"
    },
    {
      "inputs": [],
      "name": "claimRewards",
      "outputs": [],
      "stateMutability": "nonpayable",
      "type": "function"
    },
    {
      "inputs": [],
      "name": "d",
      "outputs": [
        {
          "internalType": "uint256",
          "name": "",
          "type": "uint256"
        }
      ],
      "stateMutability": "view",
      "type": "function"
    },
    {
      "inputs": [],
      "name": "decimals",
      "outputs": [
        {
          "internalType": "uint8",
          "name": "",
          "type": "uint8"
        }
      ],
      "stateMutability": "pure",
      "type": "function"
    },
    {
      "inputs": [
        {
          "internalType": "address",
          "name": "spender",
          "type": "address"
        },
        {
          "internalType": "uint256",
          "name": "subtractedValue",
          "type": "uint256"
        }
      ],
      "name": "decreaseAllowance",
      "outputs": [
        {
          "internalType": "bool",
          "name": "",
          "type": "bool"
        }
      ],
      "stateMutability": "nonpayable",
      "type": "function"
    },
    {
      "inputs": [
        {
          "internalType": "uint256",
          "name": "amount",
          "type": "uint256"
        }
      ],
      "name": "deposit",
      "outputs": [],
      "stateMutability": "nonpayable",
      "type": "function"
    },
    {
      "inputs": [],
      "name": "feeShareBP",
      "outputs": [
        {
          "internalType": "uint16",
          "name": "",
          "type": "uint16"
        }
      ],
      "stateMutability": "view",
      "type": "function"
    },
    {
      "inputs": [],
      "name": "getPrice",
      "outputs": [
        {
          "internalType": "uint256",
          "name": "",
          "type": "uint256"
        }
      ],
      "stateMutability": "view",
      "type": "function"
    },
    {
      "inputs": [
        {
          "internalType": "uint256",
          "name": "x",
          "type": "uint256"
        }
      ],
      "name": "getY",
      "outputs": [
        {
          "internalType": "uint256",
          "name": "",
          "type": "uint256"
        }
      ],
      "stateMutability": "view",
      "type": "function"
    },
    {
      "inputs": [
        {
          "internalType": "address",
          "name": "spender",
          "type": "address"
        },
        {
          "internalType": "uint256",
          "name": "addedValue",
          "type": "uint256"
        }
      ],
      "name": "increaseAllowance",
      "outputs": [
        {
          "internalType": "bool",
          "name": "",
          "type": "bool"
        }
      ],
      "stateMutability": "nonpayable",
      "type": "function"
    },
    {
      "inputs": [],
      "name": "name",
      "outputs": [
        {
          "internalType": "string",
          "name": "",
          "type": "string"
        }
      ],
      "stateMutability": "view",
      "type": "function"
    },
    {
      "inputs": [],
      "name": "owner",
      "outputs": [
        {
          "internalType": "address",
          "name": "",
          "type": "address"
        }
      ],
      "stateMutability": "view",
      "type": "function"
    },
    {
      "inputs": [
        {
          "internalType": "address",
          "name": "user",
          "type": "address"
        }
      ],
      "name": "pendingReward",
      "outputs": [
        {
          "internalType": "uint256",
          "name": "",
          "type": "uint256"
        }
      ],
      "stateMutability": "view",
      "type": "function"
    },
    {
      "inputs": [],
      "name": "renounceOwnership",
      "outputs": [],
      "stateMutability": "nonpayable",
      "type": "function"
    },
    {
      "inputs": [],
      "name": "reserves",
      "outputs": [
        {
          "internalType": "uint256",
          "name": "",
          "type": "uint256"
        }
      ],
      "stateMutability": "view",
      "type": "function"
    },
    {
      "inputs": [],
      "name": "router",
      "outputs": [
        {
          "internalType": "address",
          "name": "",
          "type": "address"
        }
      ],
      "stateMutability": "view",
      "type": "function"
    },
    {
      "inputs": [
        {
          "internalType": "uint256",
          "name": "adminFeeShareBP_",
          "type": "uint256"
        }
      ],
      "name": "setAdminFeeShare",
      "outputs": [],
      "stateMutability": "nonpayable",
      "type": "function"
    },
    {
      "inputs": [
        {
          "internalType": "uint256",
          "name": "balanceRatioMinBP_",
          "type": "uint256"
        }
      ],
      "name": "setBalanceRatioMinBP",
      "outputs": [],
      "stateMutability": "nonpayable",
      "type": "function"
    },
    {
      "inputs": [
        {
          "internalType": "uint16",
          "name": "feeShareBP_",
          "type": "uint16"
        }
      ],
      "name": "setFeeShare",
      "outputs": [],
      "stateMutability": "nonpayable",
      "type": "function"
    },
    {
      "inputs": [
        {
          "internalType": "address",
          "name": "router_",
          "type": "address"
        }
      ],
      "name": "setRouter",
      "outputs": [],
      "stateMutability": "nonpayable",
      "type": "function"
    },
    {
      "inputs": [
        {
          "internalType": "address",
          "name": "stopAuthority_",
          "type": "address"
        }
      ],
      "name": "setStopAuthority",
      "outputs": [],
      "stateMutability": "nonpayable",
      "type": "function"
    },
    {
      "inputs": [],
      "name": "startDeposit",
      "outputs": [],
      "stateMutability": "nonpayable",
      "type": "function"
    },
    {
      "inputs": [],
      "name": "startWithdraw",
      "outputs": [],
      "stateMutability": "nonpayable",
      "type": "function"
    },
    {
      "inputs": [],
      "name": "stopDeposit",
      "outputs": [],
      "stateMutability": "nonpayable",
      "type": "function"
    },
    {
      "inputs": [],
      "name": "stopWithdraw",
      "outputs": [],
      "stateMutability": "nonpayable",
      "type": "function"
    },
    {
      "inputs": [
        {
          "internalType": "address",
          "name": "user",
          "type": "address"
        },
        {
          "internalType": "uint256",
          "name": "amount",
          "type": "uint256"
        },
        {
          "internalType": "uint256",
          "name": "receiveAmountMin",
          "type": "uint256"
        },
        {
          "internalType": "bool",
          "name": "zeroFee",
          "type": "bool"
        }
      ],
      "name": "swapFromVUsd",
      "outputs": [
        {
          "internalType": "uint256",
          "name": "",
          "type": "uint256"
        }
      ],
      "stateMutability": "nonpayable",
      "type": "function"
    },
    {
      "inputs": [
        {
          "internalType": "address",
          "name": "user",
          "type": "address"
        },
        {
          "internalType": "uint256",
          "name": "amount",
          "type": "uint256"
        },
        {
          "internalType": "bool",
          "name": "zeroFee",
          "type": "bool"
        }
      ],
      "name": "swapToVUsd",
      "outputs": [
        {
          "internalType": "uint256",
          "name": "",
          "type": "uint256"
        }
      ],
      "stateMutability": "nonpayable",
      "type": "function"
    },
    {
      "inputs": [],
      "name": "symbol",
      "outputs": [
        {
          "internalType": "string",
          "name": "",
          "type": "string"
        }
      ],
      "stateMutability": "view",
      "type": "function"
    },
    {
      "inputs": [],
      "name": "token",
      "outputs": [
        {
          "internalType": "contract ERC20",
          "name": "",
          "type": "address"
        }
      ],
      "stateMutability": "view",
      "type": "function"
    },
    {
      "inputs": [],
      "name": "tokenBalance",
      "outputs": [
        {
          "internalType": "uint256",
          "name": "",
          "type": "uint256"
        }
      ],
      "stateMutability": "view",
      "type": "function"
    },
    {
      "inputs": [],
      "name": "totalSupply",
      "outputs": [
        {
          "internalType": "uint256",
          "name": "",
          "type": "uint256"
        }
      ],
      "stateMutability": "view",
      "type": "function"
    },
    {
      "inputs": [
        {
          "internalType": "address",
          "name": "to",
          "type": "address"
        },
        {
          "internalType": "uint256",
          "name": "amount",
          "type": "uint256"
        }
      ],
      "name": "transfer",
      "outputs": [
        {
          "internalType": "bool",
          "name": "",
          "type": "bool"
        }
      ],
      "stateMutability": "nonpayable",
      "type": "function"
    },
    {
      "inputs": [
        {
          "internalType": "address",
          "name": "from",
          "type": "address"
        },
        {
          "internalType": "address",
          "name": "to",
          "type": "address"
        },
        {
          "internalType": "uint256",
          "name": "amount",
          "type": "uint256"
        }
      ],
      "name": "transferFrom",
      "outputs": [
        {
          "internalType": "bool",
          "name": "",
          "type": "bool"
        }
      ],
      "stateMutability": "nonpayable",
      "type": "function"
    },
    {
      "inputs": [
        {
          "internalType": "address",
          "name": "newOwner",
          "type": "address"
        }
      ],
      "name": "transferOwnership",
      "outputs": [],
      "stateMutability": "nonpayable",
      "type": "function"
    },
    {
      "inputs": [
        {
          "internalType": "address",
          "name": "user",
          "type": "address"
        }
      ],
      "name": "userRewardDebt",
      "outputs": [
        {
          "internalType": "uint256",
          "name": "amount",
          "type": "uint256"
        }
      ],
      "stateMutability": "view",
      "type": "function"
    },
    {
      "inputs": [],
      "name": "vUsdBalance",
      "outputs": [
        {
          "internalType": "uint256",
          "name": "",
          "type": "uint256"
        }
      ],
      "stateMutability": "view",
      "type": "function"
    },
    {
      "inputs": [
        {
          "internalType": "uint256",
          "name": "amountLp",
          "type": "uint256"
        }
      ],
      "name": "withdraw",
      "outputs": [],
      "stateMutability": "nonpayable",
      "type": "function"
    },
    {
      "stateMutability": "payable",
      "type": "receive"
    }
  ],
  "bytecode": "0x610100604052600160115560016012553480156200001c57600080fd5b5060405162003666380380620036668339810160408190526200003f9162000302565b84828281816200004f33620001d4565b60046200005d838262000455565b5060056200006c828262000455565b5050506001600160a01b0383166080526200008b600561271062000537565b60085550505060a0869052600a805462010000600160b01b031916620100006001600160a01b038a1602179055620000cb6000546001600160a01b031690565b601080546001600160a01b0319166001600160a01b03928316179055600a805461ffff191661ffff8716179055600d8490556040805163313ce56760e01b8152905160009288169163313ce5679160048083019260209291908290030181865afa1580156200013e573d6000803e3d6000fd5b505050506040513d601f19601f820116820180604052508101906200016491906200055a565b60ff169050600381116200017a57600062000194565b6200018760038262000586565b6200019490600a6200069f565b60c05260038110620001a8576000620001c2565b620001b581600362000586565b620001c290600a6200069f565b60e05250620006ad9650505050505050565b600080546001600160a01b038381166001600160a01b0319831681178455604051919092169283917f8be0079c531659141344cd1fd0a4f28419497f9722a3daafe3b4186f6b6457e09190a35050565b6001600160a01b03811681146200023a57600080fd5b50565b634e487b7160e01b600052604160045260246000fd5b600082601f8301126200026557600080fd5b81516001600160401b03808211156200028257620002826200023d565b604051601f8301601f19908116603f01168101908282118183101715620002ad57620002ad6200023d565b81604052838152602092508683858801011115620002ca57600080fd5b600091505b83821015620002ee5785820183015181830184015290820190620002cf565b600093810190920192909252949350505050565b600080600080600080600060e0888a0312156200031e57600080fd5b87516200032b8162000224565b602089015160408a01519198509650620003458162000224565b606089015190955061ffff811681146200035e57600080fd5b608089015160a08a015191955093506001600160401b03808211156200038357600080fd5b620003918b838c0162000253565b935060c08a0151915080821115620003a857600080fd5b50620003b78a828b0162000253565b91505092959891949750929550565b600181811c90821680620003db57607f821691505b602082108103620003fc57634e487b7160e01b600052602260045260246000fd5b50919050565b601f8211156200045057600081815260208120601f850160051c810160208610156200042b5750805b601f850160051c820191505b818110156200044c5782815560010162000437565b5050505b505050565b81516001600160401b038111156200047157620004716200023d565b6200048981620004828454620003c6565b8462000402565b602080601f831160018114620004c15760008415620004a85750858301515b600019600386901b1c1916600185901b1785556200044c565b600085815260208120601f198616915b82811015620004f257888601518255948401946001909101908401620004d1565b5085821015620005115787850151600019600388901b60f8161c191681555b5050505050600190811b01905550565b634e487b7160e01b600052601160045260246000fd5b6000826200055557634e487b7160e01b600052601260045260246000fd5b500490565b6000602082840312156200056d57600080fd5b815160ff811681146200057f57600080fd5b9392505050565b818103818111156200059c576200059c62000521565b92915050565b600181815b80851115620005e3578160001904821115620005c757620005c762000521565b80851615620005d557918102915b93841c9390800290620005a7565b509250929050565b600082620005fc575060016200059c565b816200060b575060006200059c565b81600181146200062457600281146200062f576200064f565b60019150506200059c565b60ff84111562000643576200064362000521565b50506001821b6200059c565b5060208310610133831016604e8410600b841016171562000674575081810a6200059c565b620006808383620005a2565b806000190482111562000697576200069762000521565b029392505050565b60006200057f8383620005eb565b60805160a05160c05160e051612eec6200077a60003960008181611ecb01528181611ef401528181611f710152611f9a015260008181611e7b01528181611ea401528181611f210152611f4a0152600081816103fa0152818161165a01528181611769015281816117bb0152818161180a0152818161188f015261230801526000818161092c01528181610bbb01528181610f2d01528181610f72015281816113450152818161144f01528181611aac01528181611ced0152818161223e01526124f40152612eec6000f3fe6080604052600436106103175760003560e01c806379df4fa21161019a578063a9059cbb116100e1578063e78a58751161008a578063f40f0f5211610064578063f40f0f52146108d4578063f887ea40146108f4578063fc0c546a1461091a57610357565b8063e78a587514610889578063e99fee3e1461089f578063f2fde38b146108b457610357565b8063c0d78655116100bb578063c0d7865514610803578063c1c46dbe14610823578063dd62ed3e1461084357610357565b8063a9059cbb146103b8578063b51459fe146107cd578063b6b55f25146107e357610357565b80638da5cb5b1161014357806398d5fdca1161011d57806398d5fdca146107825780639e1a4d1914610797578063a457c2d7146107ad57610357565b80638da5cb5b1461072657806390ed6bf41461075857806395d89b411461076d57610357565b80638427a581116101745780638427a581146106db578063845a4697146106f05780638a054ac21461071057610357565b806379df4fa2146106825780637a23032c146106975780637f6a92ed146106ad57610357565b806335c24a881161025e57806352fb8b031161020757806370a08231116101e157806370a0823114610621578063715018a61461065757806375172a8b1461066c57610357565b806352fb8b03146105e15780635860638d146105f757806358ba94d71461060c57610357565b8063488cb84111610238578063488cb8411461057e5780634927b44c146105945780634bf6f9e7146105b457610357565b806335c24a8814610533578063372500ab14610549578063395093511461055e57610357565b806328fdb481116102c05780632e1a7d4d1161029a5780632e1a7d4d146104d7578063313ce567146104f75780633536a1dc1461051357610357565b806328fdb481146104755780632d46f63e146104955780632d8fe99a146104b557610357565b80630ec33022116102f15780630ec330221461042a57806318160ddd1461044057806323b872dd1461045557610357565b806306fdde031461038d578063095ea7b3146103b85780630dbe671f146103e857610357565b366103575760405162461bcd60e51b815260206004820152600b60248201526a155b9cdd5c1c1bdc9d195960aa1b60448201526064015b60405180910390fd5b60405162461bcd60e51b815260206004820152600b60248201526a155b9cdd5c1c1bdc9d195960aa1b604482015260640161034e565b34801561039957600080fd5b506103a261094e565b6040516103af9190612b31565b60405180910390f35b3480156103c457600080fd5b506103d86103d3366004612b80565b6109e0565b60405190151581526020016103af565b3480156103f457600080fd5b5061041c7f000000000000000000000000000000000000000000000000000000000000000081565b6040519081526020016103af565b34801561043657600080fd5b5061041c600c5481565b34801561044c57600080fd5b5060035461041c565b34801561046157600080fd5b506103d8610470366004612baa565b6109fa565b34801561048157600080fd5b5061041c610490366004612bf4565b610a20565b3480156104a157600080fd5b5061041c6104b0366004612c34565b610d1d565b3480156104c157600080fd5b506104d56104d0366004612c7c565b6110dd565b005b3480156104e357600080fd5b506104d56104f2366004612c7c565b61113c565b34801561050357600080fd5b50604051600381526020016103af565b34801561051f57600080fd5b506104d561052e366004612c95565b611371565b34801561053f57600080fd5b5061041c600d5481565b34801561055557600080fd5b506104d56113e7565b34801561056a57600080fd5b506103d8610579366004612b80565b6114b9565b34801561058a57600080fd5b5061041c60085481565b3480156105a057600080fd5b506104d56105af366004612cb9565b6114f8565b3480156105c057600080fd5b5061041c6105cf366004612cb9565b60076020526000908152604090205481565b3480156105ed57600080fd5b5061041c60065481565b34801561060357600080fd5b506104d561152f565b34801561061857600080fd5b506104d5611590565b34801561062d57600080fd5b5061041c61063c366004612cb9565b6001600160a01b031660009081526001602052604090205490565b34801561066357600080fd5b506104d56115f1565b34801561067857600080fd5b5061041c600e5481565b34801561068e57600080fd5b506104d5611605565b3480156106a357600080fd5b5061041c60095481565b3480156106b957600080fd5b50600a546106c89061ffff1681565b60405161ffff90911681526020016103af565b3480156106e757600080fd5b506104d5611614565b3480156106fc57600080fd5b5061041c61070b366004612c7c565b611652565b34801561071c57600080fd5b5061041c600f5481565b34801561073257600080fd5b506000546001600160a01b03165b6040516001600160a01b0390911681526020016103af565b34801561076457600080fd5b506104d561173f565b34801561077957600080fd5b506103a261174e565b34801561078e57600080fd5b5061041c61175d565b3480156107a357600080fd5b5061041c600b5481565b3480156107b957600080fd5b506103d86107c8366004612b80565b611938565b3480156107d957600080fd5b5061041c60125481565b3480156107ef57600080fd5b506104d56107fe366004612c7c565b6119ed565b34801561080f57600080fd5b506104d561081e366004612cb9565b611c25565b34801561082f57600080fd5b506104d561083e366004612c7c565b611c6d565b34801561084f57600080fd5b5061041c61085e366004612cd4565b6001600160a01b03918216600090815260026020908152604080832093909416825291909152205490565b34801561089557600080fd5b5061041c60115481565b3480156108ab57600080fd5b506104d5611ccc565b3480156108c057600080fd5b506104d56108cf366004612cb9565b611d1c565b3480156108e057600080fd5b5061041c6108ef366004612cb9565b611da9565b34801561090057600080fd5b50600a54610740906201000090046001600160a01b031681565b34801561092657600080fd5b506107407f000000000000000000000000000000000000000000000000000000000000000081565b60606004805461095d90612d07565b80601f016020809104026020016040519081016040528092919081815260200182805461098990612d07565b80156109d65780601f106109ab576101008083540402835291602001916109d6565b820191906000526020600020905b8154815290600101906020018083116109b957829003601f168201915b5050505050905090565b6000336109ee818585610357565b60019150505b92915050565b600033610a08858285611deb565b610a13858585610357565b60019150505b9392505050565b600a546000906201000090046001600160a01b03163314610a835760405162461bcd60e51b815260206004820152601360248201527f506f6f6c3a206973206e6f7420726f7574657200000000000000000000000000604482015260640161034e565b6000808415610ba85783610ab357600a5461271090610aa69061ffff1687612d57565b610ab09190612d84565b90505b6000610ac7610ac28388612d98565b611e77565b9050610ad281611f1d565b610adc9087612d98565b915080600b6000828254610af09190612dab565b9250508190555080600e6000828254610b099190612dab565b9091555050600b5460405163845a469760e01b8152600091309163845a469791610b399160040190815260200190565b602060405180830381865afa158015610b56573d6000803e3d6000fd5b505050506040513d601f19601f82011682018060405250810190610b7a9190612dbe565b905080600c541115610b975780600c54610b949190612d98565b93505b600c819055610ba583611fbf565b50505b604080516001600160a01b0380891682527f000000000000000000000000000000000000000000000000000000000000000016602082015290810186905260608101839052608081018290527fa930da1d3f27a25892307dd59cec52dd9b881661a0f20364757f83a0da2f68739060a00160405180910390a1509050600c54600b541115610ca357600d54600b54612710600c54610c469190612d57565b610c509190612d84565b1015610c9e5760405162461bcd60e51b815260206004820152601660248201527f506f6f6c3a206c6f7720765553442062616c616e636500000000000000000000604482015260640161034e565b610a19565b600c54600b541015610a1957600d54600c54612710600b54610cc59190612d57565b610ccf9190612d84565b1015610a195760405162461bcd60e51b815260206004820152601760248201527f506f6f6c3a206c6f7720746f6b656e2062616c616e6365000000000000000000604482015260640161034e565b600a546000906201000090046001600160a01b03163314610d805760405162461bcd60e51b815260206004820152601360248201527f506f6f6c3a206973206e6f7420726f7574657200000000000000000000000000604482015260640161034e565b600080808615610f5f5786600c6000828254610d9c9190612dab565b9091555050600c5460405163845a469760e01b8152600091309163845a469791610dcc9160040190815260200190565b602060405180830381865afa158015610de9573d6000803e3d6000fd5b505050506040513d601f19601f82011682018060405250810190610e0d9190612dbe565b905080600b541115610e355780600b54610e279190612d98565b9350610e3284611f1d565b92505b600e54841115610e875760405162461bcd60e51b815260206004820152600e60248201527f506f6f6c3a207265736572766573000000000000000000000000000000000000604482015260640161034e565b83600e6000828254610e999190612d98565b90915550869050610ec657600a5461271090610eb99061ffff1685612d57565b610ec39190612d84565b91505b600b819055918190039186831015610f205760405162461bcd60e51b815260206004820152600e60248201527f506f6f6c3a20736c697070616765000000000000000000000000000000000000604482015260640161034e565b610f546001600160a01b037f0000000000000000000000000000000000000000000000000000000000000000168a8561203e565b610f5d82611fbf565b505b604080516001600160a01b03808b1682527f000000000000000000000000000000000000000000000000000000000000000016602082015290810188905260608101839052608081018290527ffc1df7b9ba72a13350b8a4e0f094e232eebded9edd179950e74a852a0f4051129060a00160405180910390a150915050600c54600b54111561105b57600d54600b54612710600c54610ffe9190612d57565b6110089190612d84565b10156110565760405162461bcd60e51b815260206004820152601660248201527f506f6f6c3a206c6f7720765553442062616c616e636500000000000000000000604482015260640161034e565b6110d5565b600c54600b5410156110d557600d54600c54612710600b5461107d9190612d57565b6110879190612d84565b10156110d55760405162461bcd60e51b815260206004820152601760248201527f506f6f6c3a206c6f7720746f6b656e2062616c616e6365000000000000000000604482015260640161034e565b949350505050565b6110e56120e7565b6127108111156111375760405162461bcd60e51b815260206004820152601760248201527f5265776172644d616e616765723a20746f6f2068696768000000000000000000604482015260640161034e565b600855565b60125460011461118e5760405162461bcd60e51b815260206004820152601960248201527f506f6f6c3a2077697468647261772070726f6869626974656400000000000000604482015260640161034e565b600f5461119b3383612141565b6000600c54600b546111ad9190612dab565b905080600b54846111be9190612d57565b6111c89190612d84565b600b60008282546111d99190612d98565b9091555050600c5481906111ed9085612d57565b6111f79190612d84565b600c60008282546112089190612d98565b9091555050600c54600b54829161121e91612dab565b1061126b5760405162461bcd60e51b815260206004820152601260248201527f506f6f6c3a207a65726f206368616e6765730000000000000000000000000000604482015260640161034e565b600e548311156112bd5760405162461bcd60e51b815260206004820152600e60248201527f506f6f6c3a207265736572766573000000000000000000000000000000000000604482015260640161034e565b82600e60008282546112cf9190612d98565b909155506112dd90506122f2565b81600f541061132e5760405162461bcd60e51b815260206004820152601460248201527f506f6f6c3a207a65726f2044206368616e676573000000000000000000000000604482015260640161034e565b61136c3361133b85611f1d565b6001600160a01b037f000000000000000000000000000000000000000000000000000000000000000016919061203e565b505050565b6113796120e7565b6127108161ffff1611156113cf5760405162461bcd60e51b815260206004820152600f60248201527f506f6f6c3a20746f6f206c617267650000000000000000000000000000000000604482015260640161034e565b600a805461ffff191661ffff92909216919091179055565b3360009081526001602052604090205480156114b657600060346006548361140f9190612d57565b336000908152600760205260408120549190921c925061142f9083612d98565b9050801561136c5733600081815260076020526040902083905561147e907f00000000000000000000000000000000000000000000000000000000000000006001600160a01b0316908361203e565b60405181815233907ffc30cddea38e2bf4d6ea7d3f9ed3b6ad7f176419f4963bd81318067a4aee73fe9060200160405180910390a250505b50565b3360008181526002602090815260408083206001600160a01b03871684529091528120549091906109ee90829086906114f3908790612dab565b610357565b6115006120e7565b6010805473ffffffffffffffffffffffffffffffffffffffff19166001600160a01b0392909216919091179055565b6010546001600160a01b031633146115895760405162461bcd60e51b815260206004820152601a60248201527f506f6f6c3a206973206e6f742073746f70417574686f72697479000000000000604482015260640161034e565b6000601255565b6010546001600160a01b031633146115ea5760405162461bcd60e51b815260206004820152601a60248201527f506f6f6c3a206973206e6f742073746f70417574686f72697479000000000000604482015260640161034e565b6000601155565b6115f96120e7565b61160360006123ec565b565b61160d6120e7565b6001601155565b61161c6120e7565b600354600f5411156116035761160361163d6000546001600160a01b031690565b600354600f5461164d9190612d98565b612449565b600f546000907f0000000000000000000000000000000000000000000000000000000000000000600281901b9060031b838361168e8782612dd7565b6116989085612df7565b6116a29190612dd7565b905060006116b08280612df7565b6116ba9088612d57565b85806116c68188612d57565b6116d09190612d57565b6116da9190612d57565b6116e49190612dab565b6116ee9088612d57565b90506116fa8784612d57565b61171f611707848a612df7565b6117108461259a565b61171a9190612e27565b6125fb565b6117299190612d84565b611734906001612dab565b979650505050505050565b6117476120e7565b6001601255565b60606005805461095d90612d07565b600b54600f54600091907f000000000000000000000000000000000000000000000000000000000000000060031b9083906117988180612d57565b6117a29190612d57565b600f549091506000906117b58582612dd7565b6117e2907f000000000000000000000000000000000000000000000000000000000000000060021b612df7565b6117ec9190612dd7565b905060006117fa8280612df7565b6118049086612d57565b611831847f000000000000000000000000000000000000000000000000000000000000000060021b612d57565b61183b9190612dab565b6118459086612d57565b9050600085866001600f54901b61185c9190612d57565b6118669190612d57565b86806118728189612d57565b61187c9190612d57565b6118869190612d57565b8788600f5460037f0000000000000000000000000000000000000000000000000000000000000000901b6118ba9190612d57565b6118c49190612d57565b6118ce9190612d57565b6118d89087612e27565b6118e29190612dd7565b6118ec9190612dd7565b905061192d6118fa8361259a565b61190890600289901b612d57565b61191483612710612df7565b61191e9190612e4f565b61171a9061271060011d612e27565b965050505050505090565b3360008181526002602090815260408083206001600160a01b0387168452909152812054909190838110156119d55760405162461bcd60e51b815260206004820152602560248201527f45524332303a2064656372656173656420616c6c6f77616e63652062656c6f7760448201527f207a65726f000000000000000000000000000000000000000000000000000000606482015260840161034e565b6119e28286868403610357565b506001949350505050565b601154600114611a3f5760405162461bcd60e51b815260206004820152601860248201527f506f6f6c3a206465706f7369742070726f686962697465640000000000000000604482015260640161034e565b600f546000611a4d83611e77565b905060008111611a9f5760405162461bcd60e51b815260206004820152601060248201527f506f6f6c3a20746f6f206c6974746c6500000000000000000000000000000000604482015260640161034e565b611ad46001600160a01b037f00000000000000000000000000000000000000000000000000000000000000001633308661264d565b80600e6000828254611ae69190612dab565b9091555050600c54600b54600091611afd91612dab565b9050821580611b0a575080155b15611b4f576000600183901c905080600b6000828254611b2a9190612dab565b9250508190555080600c6000828254611b439190612dab565b90915550611bae915050565b80600b5483611b5e9190612d57565b611b689190612d84565b600b6000828254611b799190612dab565b9091555050600c548190611b8d9084612d57565b611b979190612d84565b600c6000828254611ba89190612dab565b90915550505b611bb66122f2565b611bc83384600f5461164d9190612d98565b65010000000000600b5410611c1f5760405162461bcd60e51b815260206004820152600e60248201527f506f6f6c3a20746f6f206d756368000000000000000000000000000000000000604482015260640161034e565b50505050565b611c2d6120e7565b600a80546001600160a01b0390921662010000027fffffffffffffffffffff0000000000000000000000000000000000000000ffff909216919091179055565b611c756120e7565b612710811115611cc75760405162461bcd60e51b815260206004820152600f60248201527f506f6f6c3a20746f6f206c617267650000000000000000000000000000000000604482015260640161034e565b600d55565b611cd46120e7565b6009541561160357600954611d15906001600160a01b037f00000000000000000000000000000000000000000000000000000000000000001690339061203e565b6000600955565b611d246120e7565b6001600160a01b038116611da05760405162461bcd60e51b815260206004820152602660248201527f4f776e61626c653a206e6577206f776e657220697320746865207a65726f206160448201527f6464726573730000000000000000000000000000000000000000000000000000606482015260840161034e565b6114b6816123ec565b6001600160a01b0381166000908152600760209081526040808320546006546001909352908320549091603491611de09190612d57565b6109f492911c612d98565b6001600160a01b038381166000908152600260209081526040808320938616835292905220546000198114611c1f5781811015611e6a5760405162461bcd60e51b815260206004820152601d60248201527f45524332303a20696e73756666696369656e7420616c6c6f77616e6365000000604482015260640161034e565b611c1f8484848403610357565b60007f000000000000000000000000000000000000000000000000000000000000000015611ec9576109f47f000000000000000000000000000000000000000000000000000000000000000083612d84565b7f000000000000000000000000000000000000000000000000000000000000000015611f19576109f47f000000000000000000000000000000000000000000000000000000000000000083612d57565b5090565b60007f000000000000000000000000000000000000000000000000000000000000000015611f6f576109f47f000000000000000000000000000000000000000000000000000000000000000083612d57565b7f000000000000000000000000000000000000000000000000000000000000000015611f19576109f47f000000000000000000000000000000000000000000000000000000000000000083612d84565b6000611fca60035490565b11156114b657600061271060085483611fe39190612d57565b611fed9190612d84565b90508082039150611ffd60035490565b61200b90603484901b612d84565b6006600082825461201c9190612dab565b9250508190555080600960008282546120359190612dab565b90915550505050565b6040516001600160a01b03831660248201526044810182905261136c9084907fa9059cbb00000000000000000000000000000000000000000000000000000000906064015b60408051601f198184030181529190526020810180517bffffffffffffffffffffffffffffffffffffffffffffffffffffffff167fffffffff000000000000000000000000000000000000000000000000000000009093169290921790915261269e565b6000546001600160a01b031633146116035760405162461bcd60e51b815260206004820181905260248201527f4f776e61626c653a2063616c6c6572206973206e6f7420746865206f776e6572604482015260640161034e565b6001600160a01b038216600090815260016020526040902054818110156121aa5760405162461bcd60e51b815260206004820181905260248201527f5265776172644d616e616765723a206e6f7420656e6f75676820616d6f756e74604482015260640161034e565b600081156121e9576001600160a01b0384166000908152600760205260409020546006546034906121db9085612d57565b6121e692911c612d98565b90505b6121f38383612d98565b91506121ff8484612783565b60346006548361220f9190612d57565b6001600160a01b0386166000908152600760205260409020911c905580156122a9576122656001600160a01b037f000000000000000000000000000000000000000000000000000000000000000016858361203e565b836001600160a01b03167ffc30cddea38e2bf4d6ea7d3f9ed3b6ad7f176419f4963bd81318067a4aee73fe826040516122a091815260200190565b60405180910390a25b836001600160a01b03167f884edad9ce6fa2440d8a54cc123490eb96d2768479d49ff9c7366125a9424364846040516122e491815260200190565b60405180910390a250505050565b600b54600c5460006123048284612d57565b90507f000000000000000000000000000000000000000000000000000000000000000060006123338486612dab565b61233d8484612d57565b6123479190612d57565b90506000600361235c6001600286901b612d98565b6123669086612d57565b6123709190612d84565b905060006123a5826123828180612d57565b61238c9190612d57565b6123968580612d57565b6123a09190612dab565b61259a565b905060006123b48285016128ee565b9050838211156123d0576123c98483036128ee565b90036123dd565b6123db8285036128ee565b015b60011b600f5550505050505050565b600080546001600160a01b0383811673ffffffffffffffffffffffffffffffffffffffff19831681178455604051919092169283917f8be0079c531659141344cd1fd0a4f28419497f9722a3daafe3b4186f6b6457e09190a35050565b6001600160a01b038216600090815260016020526040812054801561249f576001600160a01b0384166000908152600760205260409020546006546034906124919084612d57565b61249c92911c612d98565b91505b6124a98382612dab565b90506124b58484612939565b6034600654826124c59190612d57565b6001600160a01b0386166000908152600760205260409020911c9055811561255f5761251b6001600160a01b037f000000000000000000000000000000000000000000000000000000000000000016858461203e565b836001600160a01b03167ffc30cddea38e2bf4d6ea7d3f9ed3b6ad7f176419f4963bd81318067a4aee73fe8360405161255691815260200190565b60405180910390a25b836001600160a01b03167fe1fffcc4923d04b559f4d29a8bfc6cda04eb5b0d3c460751c2402c5c5cc9109c846040516122e491815260200190565b600081156125f357600182811c8101906000908285816125bc576125bc612d6e565b048301901c90505b808211156125ec5780915060018285816125e0576125e0612d6e565b048301901c90506125c4565b5092915050565b506000919050565b600080821215611f195760405162461bcd60e51b815260206004820181905260248201527f53616665436173743a2076616c7565206d75737420626520706f736974697665604482015260640161034e565b6040516001600160a01b0380851660248301528316604482015260648101829052611c1f9085907f23b872dd0000000000000000000000000000000000000000000000000000000090608401612083565b60006126f3826040518060400160405280602081526020017f5361666545524332303a206c6f772d6c6576656c2063616c6c206661696c6564815250856001600160a01b03166129fa9092919063ffffffff16565b80519091501561136c57808060200190518101906127119190612e7d565b61136c5760405162461bcd60e51b815260206004820152602a60248201527f5361666545524332303a204552433230206f7065726174696f6e20646964206e60448201527f6f74207375636365656400000000000000000000000000000000000000000000606482015260840161034e565b6001600160a01b0382166127ff5760405162461bcd60e51b815260206004820152602160248201527f45524332303a206275726e2066726f6d20746865207a65726f2061646472657360448201527f7300000000000000000000000000000000000000000000000000000000000000606482015260840161034e565b6001600160a01b0382166000908152600160205260409020548181101561288e5760405162461bcd60e51b815260206004820152602260248201527f45524332303a206275726e20616d6f756e7420657863656564732062616c616e60448201527f6365000000000000000000000000000000000000000000000000000000000000606482015260840161034e565b6001600160a01b03831660008181526001602090815260408083208686039055600380548790039055518581529192917fddf252ad1be2c89b69c2b068fc378daa952ba7f163c4a11628f55a4df523b3ef910160405180910390a3505050565b600080600160ff1b5b80156125ec57600191821b918281018302600302018082868161291c5761291c612d6e565b041061293057808202850394506001830192505b5060031c6128f7565b6001600160a01b03821661298f5760405162461bcd60e51b815260206004820152601f60248201527f45524332303a206d696e7420746f20746865207a65726f206164647265737300604482015260640161034e565b80600360008282546129a19190612dab565b90915550506001600160a01b0382166000818152600160209081526040808320805486019055518481527fddf252ad1be2c89b69c2b068fc378daa952ba7f163c4a11628f55a4df523b3ef910160405180910390a35050565b60606110d5848460008585600080866001600160a01b03168587604051612a219190612e9a565b60006040518083038185875af1925050503d8060008114612a5e576040519150601f19603f3d011682016040523d82523d6000602084013e612a63565b606091505b50915091506117348783838760608315612ade578251600003612ad7576001600160a01b0385163b612ad75760405162461bcd60e51b815260206004820152601d60248201527f416464726573733a2063616c6c20746f206e6f6e2d636f6e7472616374000000604482015260640161034e565b50816110d5565b6110d58383815115612af35781518083602001fd5b8060405162461bcd60e51b815260040161034e9190612b31565b60005b83811015612b28578181015183820152602001612b10565b50506000910152565b6020815260008251806020840152612b50816040850160208701612b0d565b601f01601f19169190910160400192915050565b80356001600160a01b0381168114612b7b57600080fd5b919050565b60008060408385031215612b9357600080fd5b612b9c83612b64565b946020939093013593505050565b600080600060608486031215612bbf57600080fd5b612bc884612b64565b9250612bd660208501612b64565b9150604084013590509250925092565b80151581146114b657600080fd5b600080600060608486031215612c0957600080fd5b612c1284612b64565b9250602084013591506040840135612c2981612be6565b809150509250925092565b60008060008060808587031215612c4a57600080fd5b612c5385612b64565b935060208501359250604085013591506060850135612c7181612be6565b939692955090935050565b600060208284031215612c8e57600080fd5b5035919050565b600060208284031215612ca757600080fd5b813561ffff81168114610a1957600080fd5b600060208284031215612ccb57600080fd5b610a1982612b64565b60008060408385031215612ce757600080fd5b612cf083612b64565b9150612cfe60208401612b64565b90509250929050565b600181811c90821680612d1b57607f821691505b602082108103612d3b57634e487b7160e01b600052602260045260246000fd5b50919050565b634e487b7160e01b600052601160045260246000fd5b80820281158282048414176109f4576109f4612d41565b634e487b7160e01b600052601260045260246000fd5b600082612d9357612d93612d6e565b500490565b818103818111156109f4576109f4612d41565b808201808211156109f4576109f4612d41565b600060208284031215612dd057600080fd5b5051919050565b81810360008312801583831316838312821617156125ec576125ec612d41565b80820260008212600160ff1b84141615612e1357612e13612d41565b81810583148215176109f4576109f4612d41565b8082018281126000831280158216821582161715612e4757612e47612d41565b505092915050565b600082612e5e57612e5e612d6e565b600160ff1b821460001984141615612e7857612e78612d41565b500590565b600060208284031215612e8f57600080fd5b8151610a1981612be6565b60008251612eac818460208701612b0d565b919091019291505056fea2646970667358221220cf8bbc8d773f3a9e8c446559f4074b1091e3753e4d731f648de781ae83d19e6864736f6c63430008120033",
  "linkReferences": {},
  "deployedLinkReferences": {}
}